{"abi":[{"type":"constructor","inputs":[{"name":"_vault","type":"address","internalType":"address"}],"stateMutability":"nonpayable"},{"type":"function","name":"addPool","inputs":[{"name":"_pool","type":"address","internalType":"address"}],"outputs":[],"stateMutability":"nonpayable"},{"type":"function","name":"claimAndRedistribute","inputs":[],"outputs":[],"stateMutability":"nonpayable"},{"type":"function","name":"deposit","inputs":[{"name":"amount","type":"uint256","internalType":"uint256"}],"outputs":[],"stateMutability":"nonpayable"},{"type":"function","name":"owner","inputs":[],"outputs":[{"name":"","type":"address","internalType":"address"}],"stateMutability":"view"},{"type":"function","name":"pools","inputs":[{"name":"","type":"uint256","internalType":"uint256"}],"outputs":[{"name":"","type":"address","internalType":"contract IYieldPool"}],"stateMutability":"view"},{"type":"function","name":"renounceOwnership","inputs":[],"outputs":[],"stateMutability":"nonpayable"},{"type":"function","name":"transferOwnership","inputs":[{"name":"newOwner","type":"address","internalType":"address"}],"outputs":[],"stateMutability":"nonpayable"},{"type":"function","name":"users","inputs":[{"name":"","type":"address","internalType":"address"}],"outputs":[{"name":"amount","type":"uint256","internalType":"uint256"},{"name":"poolIndex","type":"uint8","internalType":"uint8"},{"name":"depositTime","type":"uint256","internalType":"uint256"}],"stateMutability":"view"},{"type":"function","name":"vUSDT","inputs":[],"outputs":[{"name":"","type":"address","internalType":"contract IERC20"}],"stateMutability":"view"},{"type":"function","name":"vault","inputs":[],"outputs":[{"name":"","type":"address","internalType":"contract IVault"}],"stateMutability":"view"},{"type":"event","name":"Claimed","inputs":[{"name":"user","type":"address","indexed":true,"internalType":"address"},{"name":"oldPool","type":"uint256","indexed":false,"internalType":"uint256"},{"name":"newPool","type":"uint256","indexed":false,"internalType":"uint256"},{"name":"totalReturned","type":"uint256","indexed":false,"internalType":"uint256"}],"anonymous":false},{"type":"event","name":"Deposited","inputs":[{"name":"user","type":"address","indexed":true,"internalType":"address"},{"name":"poolIndex","type":"uint8","indexed":false,"internalType":"uint8"},{"name":"amount","type":"uint256","indexed":false,"internalType":"uint256"}],"anonymous":false},{"type":"event","name":"OwnershipTransferred","inputs":[{"name":"previousOwner","type":"address","indexed":true,"internalType":"address"},{"name":"newOwner","type":"address","indexed":true,"internalType":"address"}],"anonymous":false},{"type":"error","name":"OwnableInvalidOwner","inputs":[{"name":"owner","type":"address","internalType":"address"}]},{"type":"error","name":"OwnableUnauthorizedAccount","inputs":[{"name":"account","type":"address","internalType":"address"}]},{"type":"error","name":"ReentrancyGuardReentrantCall","inputs":[]}],"bytecode":{"object":"0x608060405234801561000f575f5ffd5b506040516116f73803806116f7833981810160405281019061003191906102eb565b335f73ffffffffffffffffffffffffffffffffffffffff168173ffffffffffffffffffffffffffffffffffffffff16036100a2575f6040517f1e4fbdf70000000000000000000000000000000000000000000000000000000081526004016100999190610325565b60405180910390fd5b6100b1816101cc60201b60201c565b50600180819055508060025f6101000a81548173ffffffffffffffffffffffffffffffffffffffff021916908373ffffffffffffffffffffffffffffffffffffffff16021790555060025f9054906101000a900473ffffffffffffffffffffffffffffffffffffffff1673ffffffffffffffffffffffffffffffffffffffff1663a879ebeb6040518163ffffffff1660e01b8152600401602060405180830381865afa158015610163573d5f5f3e3d5ffd5b505050506040513d601f19601f8201168201806040525081019061018791906102eb565b60035f6101000a81548173ffffffffffffffffffffffffffffffffffffffff021916908373ffffffffffffffffffffffffffffffffffffffff1602179055505061033e565b5f5f5f9054906101000a900473ffffffffffffffffffffffffffffffffffffffff169050815f5f6101000a81548173ffffffffffffffffffffffffffffffffffffffff021916908373ffffffffffffffffffffffffffffffffffffffff1602179055508173ffffffffffffffffffffffffffffffffffffffff168173ffffffffffffffffffffffffffffffffffffffff167f8be0079c531659141344cd1fd0a4f28419497f9722a3daafe3b4186f6b6457e060405160405180910390a35050565b5f5ffd5b5f73ffffffffffffffffffffffffffffffffffffffff82169050919050565b5f6102ba82610291565b9050919050565b6102ca816102b0565b81146102d4575f5ffd5b50565b5f815190506102e5816102c1565b92915050565b5f60208284031215610300576102ff61028d565b5b5f61030d848285016102d7565b91505092915050565b61031f816102b0565b82525050565b5f6020820190506103385f830184610316565b92915050565b6113ac8061034b5f395ff3fe608060405234801561000f575f5ffd5b506004361061009c575f3560e01c8063ac4afa3811610064578063ac4afa3814610122578063b6b55f2514610152578063d914cd4b1461016e578063f2fde38b1461018a578063fbfa77cf146101a65761009c565b8063715018a6146100a05780638a663a17146100aa5780638da5cb5b146100b4578063a87430ba146100d2578063a879ebeb14610104575b5f5ffd5b6100a86101c4565b005b6100b26101d7565b005b6100bc6105d5565b6040516100c99190610e56565b60405180910390f35b6100ec60048036038101906100e79190610e9d565b6105fc565b6040516100fb93929190610efb565b60405180910390f35b61010c61062e565b6040516101199190610f8b565b60405180910390f35b61013c60048036038101906101379190610fce565b610653565b6040516101499190611019565b60405180910390f35b61016c60048036038101906101679190610fce565b61068e565b005b61018860048036038101906101839190610e9d565b610a75565b005b6101a4600480360381019061019f9190610e9d565b610ae0565b005b6101ae610b64565b6040516101bb9190611052565b60405180910390f35b6101cc610b89565b6101d55f610c10565b565b6101df610cd1565b5f60055f3373ffffffffffffffffffffffffffffffffffffffff1673ffffffffffffffffffffffffffffffffffffffff1681526020019081526020015f2090505f815f015411610264576040517f08c379a000000000000000000000000000000000000000000000000000000000815260040161025b906110c5565b60405180910390fd5b5f816001015f9054906101000a900460ff1690505f60048260ff16815481106102905761028f6110e3565b5b905f5260205f20015f9054906101000a900473ffffffffffffffffffffffffffffffffffffffff1673ffffffffffffffffffffffffffffffffffffffff1663fa09e630306040518263ffffffff1660e01b81526004016102f09190610e56565b6020604051808303815f875af115801561030c573d5f5f3e3d5ffd5b505050506040513d601f19601f820116820180604052508101906103309190611124565b905060025f9054906101000a900473ffffffffffffffffffffffffffffffffffffffff1673ffffffffffffffffffffffffffffffffffffffff166317f1749833855f01546040518363ffffffff1660e01b815260040161039192919061114f565b5f604051808303815f87803b1580156103a8575f5ffd5b505af11580156103ba573d5f5f3e3d5ffd5b505050505f6103c7610d17565b905060035f9054906101000a900473ffffffffffffffffffffffffffffffffffffffff1673ffffffffffffffffffffffffffffffffffffffff1663095ea7b360048360ff168154811061041d5761041c6110e3565b5b905f5260205f20015f9054906101000a900473ffffffffffffffffffffffffffffffffffffffff16846040518363ffffffff1660e01b815260040161046392919061114f565b6020604051808303815f875af115801561047f573d5f5f3e3d5ffd5b505050506040513d601f19601f820116820180604052508101906104a391906111ab565b5060048160ff16815481106104bb576104ba6110e3565b5b905f5260205f20015f9054906101000a900473ffffffffffffffffffffffffffffffffffffffff1673ffffffffffffffffffffffffffffffffffffffff1663b6b55f25836040518263ffffffff1660e01b815260040161051b91906111d6565b5f604051808303815f87803b158015610532575f5ffd5b505af1158015610544573d5f5f3e3d5ffd5b5050505081845f018190555080846001015f6101000a81548160ff021916908360ff1602179055504284600201819055503373ffffffffffffffffffffffffffffffffffffffff167f9cdcf2f7714cca3508c7f0110b04a90a80a3a8dd0e35de99689db74d28c5383e8483856040516105bf9392919061121f565b60405180910390a2505050506105d3610e07565b565b5f5f5f9054906101000a900473ffffffffffffffffffffffffffffffffffffffff16905090565b6005602052805f5260405f205f91509050805f015490806001015f9054906101000a900460ff16908060020154905083565b60035f9054906101000a900473ffffffffffffffffffffffffffffffffffffffff1681565b60048181548110610662575f80fd5b905f5260205f20015f915054906101000a900473ffffffffffffffffffffffffffffffffffffffff1681565b610696610cd1565b5f60025f9054906101000a900473ffffffffffffffffffffffffffffffffffffffff1673ffffffffffffffffffffffffffffffffffffffff1663c8910913336040518263ffffffff1660e01b81526004016106f19190610e56565b6040805180830381865afa15801561070b573d5f5f3e3d5ffd5b505050506040513d601f19601f8201168201806040525081019061072f9190611254565b91505081811015610775576040517f08c379a000000000000000000000000000000000000000000000000000000000815260040161076c906112dc565b60405180910390fd5b60025f9054906101000a900473ffffffffffffffffffffffffffffffffffffffff1673ffffffffffffffffffffffffffffffffffffffff166347a7d10733846040518363ffffffff1660e01b81526004016107d192919061114f565b5f604051808303815f87803b1580156107e8575f5ffd5b505af11580156107fa573d5f5f3e3d5ffd5b505050505f610807610d17565b905060035f9054906101000a900473ffffffffffffffffffffffffffffffffffffffff1673ffffffffffffffffffffffffffffffffffffffff1663095ea7b360048360ff168154811061085d5761085c6110e3565b5b905f5260205f20015f9054906101000a900473ffffffffffffffffffffffffffffffffffffffff16856040518363ffffffff1660e01b81526004016108a392919061114f565b6020604051808303815f875af11580156108bf573d5f5f3e3d5ffd5b505050506040513d601f19601f820116820180604052508101906108e391906111ab565b5060048160ff16815481106108fb576108fa6110e3565b5b905f5260205f20015f9054906101000a900473ffffffffffffffffffffffffffffffffffffffff1673ffffffffffffffffffffffffffffffffffffffff1663b6b55f25846040518263ffffffff1660e01b815260040161095b91906111d6565b5f604051808303815f87803b158015610972575f5ffd5b505af1158015610984573d5f5f3e3d5ffd5b5050505060405180606001604052808481526020018260ff1681526020014281525060055f3373ffffffffffffffffffffffffffffffffffffffff1673ffffffffffffffffffffffffffffffffffffffff1681526020019081526020015f205f820151815f01556020820151816001015f6101000a81548160ff021916908360ff160217905550604082015181600201559050503373ffffffffffffffffffffffffffffffffffffffff167f1d0787aee899a49ef81d0b11da9aca5455b46aefed042a41bd398d74619cab008285604051610a609291906112fa565b60405180910390a25050610a72610e07565b50565b610a7d610b89565b600481908060018154018082558091505060019003905f5260205f20015f9091909190916101000a81548173ffffffffffffffffffffffffffffffffffffffff021916908373ffffffffffffffffffffffffffffffffffffffff16021790555050565b610ae8610b89565b5f73ffffffffffffffffffffffffffffffffffffffff168173ffffffffffffffffffffffffffffffffffffffff1603610b58575f6040517f1e4fbdf7000000000000000000000000000000000000000000000000000000008152600401610b4f9190610e56565b60405180910390fd5b610b6181610c10565b50565b60025f9054906101000a900473ffffffffffffffffffffffffffffffffffffffff1681565b610b91610e10565b73ffffffffffffffffffffffffffffffffffffffff16610baf6105d5565b73ffffffffffffffffffffffffffffffffffffffff1614610c0e57610bd2610e10565b6040517f118cdaa7000000000000000000000000000000000000000000000000000000008152600401610c059190610e56565b60405180910390fd5b565b5f5f5f9054906101000a900473ffffffffffffffffffffffffffffffffffffffff169050815f5f6101000a81548173ffffffffffffffffffffffffffffffffffffffff021916908373ffffffffffffffffffffffffffffffffffffffff1602179055508173ffffffffffffffffffffffffffffffffffffffff168173ffffffffffffffffffffffffffffffffffffffff167f8be0079c531659141344cd1fd0a4f28419497f9722a3daafe3b4186f6b6457e060405160405180910390a35050565b600260015403610d0d576040517f3ee5aeb500000000000000000000000000000000000000000000000000000000815260040160405180910390fd5b6002600181905550565b5f5f5f90505f5f90505b6004805490508160ff161015610e02575f60048260ff1681548110610d4957610d486110e3565b5b905f5260205f20015f9054906101000a900473ffffffffffffffffffffffffffffffffffffffff1673ffffffffffffffffffffffffffffffffffffffff166378a642f26040518163ffffffff1660e01b8152600401602060405180830381865afa158015610db9573d5f5f3e3d5ffd5b505050506040513d601f19601f82011682018060405250810190610ddd9190611124565b905082811115610dee578092508193505b508080610dfa9061134e565b915050610d21565b505090565b60018081905550565b5f33905090565b5f73ffffffffffffffffffffffffffffffffffffffff82169050919050565b5f610e4082610e17565b9050919050565b610e5081610e36565b82525050565b5f602082019050610e695f830184610e47565b92915050565b5f5ffd5b610e7c81610e36565b8114610e86575f5ffd5b50565b5f81359050610e9781610e73565b92915050565b5f60208284031215610eb257610eb1610e6f565b5b5f610ebf84828501610e89565b91505092915050565b5f819050919050565b610eda81610ec8565b82525050565b5f60ff82169050919050565b610ef581610ee0565b82525050565b5f606082019050610f0e5f830186610ed1565b610f1b6020830185610eec565b610f286040830184610ed1565b949350505050565b5f819050919050565b5f610f53610f4e610f4984610e17565b610f30565b610e17565b9050919050565b5f610f6482610f39565b9050919050565b5f610f7582610f5a565b9050919050565b610f8581610f6b565b82525050565b5f602082019050610f9e5f830184610f7c565b92915050565b610fad81610ec8565b8114610fb7575f5ffd5b50565b5f81359050610fc881610fa4565b92915050565b5f60208284031215610fe357610fe2610e6f565b5b5f610ff084828501610fba565b91505092915050565b5f61100382610f5a565b9050919050565b61101381610ff9565b82525050565b5f60208201905061102c5f83018461100a565b92915050565b5f61103c82610f5a565b9050919050565b61104c81611032565b82525050565b5f6020820190506110655f830184611043565b92915050565b5f82825260208201905092915050565b7f4e6f7468696e6720746f20636c61696d000000000000000000000000000000005f82015250565b5f6110af60108361106b565b91506110ba8261107b565b602082019050919050565b5f6020820190508181035f8301526110dc816110a3565b9050919050565b7f4e487b71000000000000000000000000000000000000000000000000000000005f52603260045260245ffd5b5f8151905061111e81610fa4565b92915050565b5f6020828403121561113957611138610e6f565b5b5f61114684828501611110565b91505092915050565b5f6040820190506111625f830185610e47565b61116f6020830184610ed1565b9392505050565b5f8115159050919050565b61118a81611176565b8114611194575f5ffd5b50565b5f815190506111a581611181565b92915050565b5f602082840312156111c0576111bf610e6f565b5b5f6111cd84828501611197565b91505092915050565b5f6020820190506111e95f830184610ed1565b92915050565b5f6112096112046111ff84610ee0565b610f30565b610ec8565b9050919050565b611219816111ef565b82525050565b5f6060820190506112325f830186611210565b61123f6020830185611210565b61124c6040830184610ed1565b949350505050565b5f5f6040838503121561126a57611269610e6f565b5b5f61127785828601611110565b925050602061128885828601611110565b9150509250929050565b7f4e6f7420656e6f75676820696e207661756c74000000000000000000000000005f82015250565b5f6112c660138361106b565b91506112d182611292565b602082019050919050565b5f6020820190508181035f8301526112f3816112ba565b9050919050565b5f60408201905061130d5f830185610eec565b61131a6020830184610ed1565b9392505050565b7f4e487b71000000000000000000000000000000000000000000000000000000005f52601160045260245ffd5b5f61135882610ee0565b915060ff820361136b5761136a611321565b5b60018201905091905056fea26469706673582212201180667e6fbd2213962f59fc1ffb1e6313ecec4b1a996daf480dd015c01021af64736f6c634300081e0033","linkReferences":{}},"methodIdentifiers":{"addPool(address)":"d914cd4b","claimAndRedistribute()":"8a663a17","deposit(uint256)":"b6b55f25","owner()":"8da5cb5b","pools(uint256)":"ac4afa38","renounceOwnership()":"715018a6","transferOwnership(address)":"f2fde38b","users(address)":"a87430ba","vUSDT()":"a879ebeb","vault()":"fbfa77cf"},"id":25}