{"abi":[{"type":"constructor","inputs":[{"name":"_asset","type":"address","internalType":"contract IERC20"},{"name":"_strategyManager","type":"address","internalType":"address"}],"stateMutability":"nonpayable"},{"type":"function","name":"allowance","inputs":[{"name":"owner","type":"address","internalType":"address"},{"name":"spender","type":"address","internalType":"address"}],"outputs":[{"name":"","type":"uint256","internalType":"uint256"}],"stateMutability":"view"},{"type":"function","name":"approve","inputs":[{"name":"spender","type":"address","internalType":"address"},{"name":"value","type":"uint256","internalType":"uint256"}],"outputs":[{"name":"","type":"bool","internalType":"bool"}],"stateMutability":"nonpayable"},{"type":"function","name":"asset","inputs":[],"outputs":[{"name":"","type":"address","internalType":"address"}],"stateMutability":"view"},{"type":"function","name":"balanceOf","inputs":[{"name":"account","type":"address","internalType":"address"}],"outputs":[{"name":"","type":"uint256","internalType":"uint256"}],"stateMutability":"view"},{"type":"function","name":"convertToAssets","inputs":[{"name":"shares","type":"uint256","internalType":"uint256"}],"outputs":[{"name":"","type":"uint256","internalType":"uint256"}],"stateMutability":"view"},{"type":"function","name":"convertToShares","inputs":[{"name":"assets","type":"uint256","internalType":"uint256"}],"outputs":[{"name":"","type":"uint256","internalType":"uint256"}],"stateMutability":"view"},{"type":"function","name":"decimals","inputs":[],"outputs":[{"name":"","type":"uint8","internalType":"uint8"}],"stateMutability":"view"},{"type":"function","name":"deposit","inputs":[{"name":"assets","type":"uint256","internalType":"uint256"},{"name":"receiver","type":"address","internalType":"address"}],"outputs":[{"name":"","type":"uint256","internalType":"uint256"}],"stateMutability":"nonpayable"},{"type":"function","name":"emergencyWithdrawAll","inputs":[],"outputs":[],"stateMutability":"nonpayable"},{"type":"function","name":"feeRecipient","inputs":[],"outputs":[{"name":"","type":"address","internalType":"address"}],"stateMutability":"view"},{"type":"function","name":"harvestAll","inputs":[],"outputs":[{"name":"","type":"uint256","internalType":"uint256"}],"stateMutability":"nonpayable"},{"type":"function","name":"lastRebalance","inputs":[],"outputs":[{"name":"","type":"uint256","internalType":"uint256"}],"stateMutability":"view"},{"type":"function","name":"maxDeposit","inputs":[{"name":"","type":"address","internalType":"address"}],"outputs":[{"name":"","type":"uint256","internalType":"uint256"}],"stateMutability":"view"},{"type":"function","name":"maxMint","inputs":[{"name":"","type":"address","internalType":"address"}],"outputs":[{"name":"","type":"uint256","internalType":"uint256"}],"stateMutability":"view"},{"type":"function","name":"maxRedeem","inputs":[{"name":"owner","type":"address","internalType":"address"}],"outputs":[{"name":"","type":"uint256","internalType":"uint256"}],"stateMutability":"view"},{"type":"function","name":"maxWithdraw","inputs":[{"name":"owner","type":"address","internalType":"address"}],"outputs":[{"name":"","type":"uint256","internalType":"uint256"}],"stateMutability":"view"},{"type":"function","name":"mint","inputs":[{"name":"shares","type":"uint256","internalType":"uint256"},{"name":"receiver","type":"address","internalType":"address"}],"outputs":[{"name":"","type":"uint256","internalType":"uint256"}],"stateMutability":"nonpayable"},{"type":"function","name":"name","inputs":[],"outputs":[{"name":"","type":"string","internalType":"string"}],"stateMutability":"view"},{"type":"function","name":"owner","inputs":[],"outputs":[{"name":"","type":"address","internalType":"address"}],"stateMutability":"view"},{"type":"function","name":"pause","inputs":[],"outputs":[],"stateMutability":"nonpayable"},{"type":"function","name":"paused","inputs":[],"outputs":[{"name":"","type":"bool","internalType":"bool"}],"stateMutability":"view"},{"type":"function","name":"performanceFee","inputs":[],"outputs":[{"name":"","type":"uint256","internalType":"uint256"}],"stateMutability":"view"},{"type":"function","name":"previewDeposit","inputs":[{"name":"assets","type":"uint256","internalType":"uint256"}],"outputs":[{"name":"","type":"uint256","internalType":"uint256"}],"stateMutability":"view"},{"type":"function","name":"previewMint","inputs":[{"name":"shares","type":"uint256","internalType":"uint256"}],"outputs":[{"name":"","type":"uint256","internalType":"uint256"}],"stateMutability":"view"},{"type":"function","name":"previewRedeem","inputs":[{"name":"shares","type":"uint256","internalType":"uint256"}],"outputs":[{"name":"","type":"uint256","internalType":"uint256"}],"stateMutability":"view"},{"type":"function","name":"previewWithdraw","inputs":[{"name":"assets","type":"uint256","internalType":"uint256"}],"outputs":[{"name":"","type":"uint256","internalType":"uint256"}],"stateMutability":"view"},{"type":"function","name":"rebalance","inputs":[],"outputs":[],"stateMutability":"nonpayable"},{"type":"function","name":"rebalanceInterval","inputs":[],"outputs":[{"name":"","type":"uint256","internalType":"uint256"}],"stateMutability":"view"},{"type":"function","name":"redeem","inputs":[{"name":"shares","type":"uint256","internalType":"uint256"},{"name":"receiver","type":"address","internalType":"address"},{"name":"owner","type":"address","internalType":"address"}],"outputs":[{"name":"","type":"uint256","internalType":"uint256"}],"stateMutability":"nonpayable"},{"type":"function","name":"renounceOwnership","inputs":[],"outputs":[],"stateMutability":"nonpayable"},{"type":"function","name":"setFeeRecipient","inputs":[{"name":"recipient","type":"address","internalType":"address"}],"outputs":[],"stateMutability":"nonpayable"},{"type":"function","name":"setPerformanceFee","inputs":[{"name":"fee","type":"uint256","internalType":"uint256"}],"outputs":[],"stateMutability":"nonpayable"},{"type":"function","name":"setRebalanceInterval","inputs":[{"name":"interval","type":"uint256","internalType":"uint256"}],"outputs":[],"stateMutability":"nonpayable"},{"type":"function","name":"setWithdrawalFee","inputs":[{"name":"fee","type":"uint256","internalType":"uint256"}],"outputs":[],"stateMutability":"nonpayable"},{"type":"function","name":"strategyManager","inputs":[],"outputs":[{"name":"","type":"address","internalType":"contract StrategyManager"}],"stateMutability":"view"},{"type":"function","name":"symbol","inputs":[],"outputs":[{"name":"","type":"string","internalType":"string"}],"stateMutability":"view"},{"type":"function","name":"totalAssets","inputs":[],"outputs":[{"name":"","type":"uint256","internalType":"uint256"}],"stateMutability":"view"},{"type":"function","name":"totalDeposited","inputs":[],"outputs":[{"name":"","type":"uint256","internalType":"uint256"}],"stateMutability":"view"},{"type":"function","name":"totalSupply","inputs":[],"outputs":[{"name":"","type":"uint256","internalType":"uint256"}],"stateMutability":"view"},{"type":"function","name":"totalWithdrawn","inputs":[],"outputs":[{"name":"","type":"uint256","internalType":"uint256"}],"stateMutability":"view"},{"type":"function","name":"transfer","inputs":[{"name":"to","type":"address","internalType":"address"},{"name":"value","type":"uint256","internalType":"uint256"}],"outputs":[{"name":"","type":"bool","internalType":"bool"}],"stateMutability":"nonpayable"},{"type":"function","name":"transferFrom","inputs":[{"name":"from","type":"address","internalType":"address"},{"name":"to","type":"address","internalType":"address"},{"name":"value","type":"uint256","internalType":"uint256"}],"outputs":[{"name":"","type":"bool","internalType":"bool"}],"stateMutability":"nonpayable"},{"type":"function","name":"transferOwnership","inputs":[{"name":"newOwner","type":"address","internalType":"address"}],"outputs":[],"stateMutability":"nonpayable"},{"type":"function","name":"unpause","inputs":[],"outputs":[],"stateMutability":"nonpayable"},{"type":"function","name":"withdraw","inputs":[{"name":"assets","type":"uint256","internalType":"uint256"},{"name":"receiver","type":"address","internalType":"address"},{"name":"owner","type":"address","internalType":"address"}],"outputs":[{"name":"","type":"uint256","internalType":"uint256"}],"stateMutability":"nonpayable"},{"type":"function","name":"withdrawalFee","inputs":[],"outputs":[{"name":"","type":"uint256","internalType":"uint256"}],"stateMutability":"view"},{"type":"event","name":"Approval","inputs":[{"name":"owner","type":"address","indexed":true,"internalType":"address"},{"name":"spender","type":"address","indexed":true,"internalType":"address"},{"name":"value","type":"uint256","indexed":false,"internalType":"uint256"}],"anonymous":false},{"type":"event","name":"Deposit","inputs":[{"name":"sender","type":"address","indexed":true,"internalType":"address"},{"name":"owner","type":"address","indexed":true,"internalType":"address"},{"name":"assets","type":"uint256","indexed":false,"internalType":"uint256"},{"name":"shares","type":"uint256","indexed":false,"internalType":"uint256"}],"anonymous":false},{"type":"event","name":"Deposited","inputs":[{"name":"user","type":"address","indexed":true,"internalType":"address"},{"name":"assets","type":"uint256","indexed":false,"internalType":"uint256"},{"name":"shares","type":"uint256","indexed":false,"internalType":"uint256"}],"anonymous":false},{"type":"event","name":"EmergencyWithdraw","inputs":[{"name":"amount","type":"uint256","indexed":false,"internalType":"uint256"}],"anonymous":false},{"type":"event","name":"FeeRecipientUpdated","inputs":[{"name":"newRecipient","type":"address","indexed":true,"internalType":"address"}],"anonymous":false},{"type":"event","name":"FeesCollected","inputs":[{"name":"amount","type":"uint256","indexed":false,"internalType":"uint256"},{"name":"feeType","type":"string","indexed":false,"internalType":"string"}],"anonymous":false},{"type":"event","name":"Harvested","inputs":[{"name":"totalYield","type":"uint256","indexed":false,"internalType":"uint256"}],"anonymous":false},{"type":"event","name":"OwnershipTransferred","inputs":[{"name":"previousOwner","type":"address","indexed":true,"internalType":"address"},{"name":"newOwner","type":"address","indexed":true,"internalType":"address"}],"anonymous":false},{"type":"event","name":"Paused","inputs":[{"name":"account","type":"address","indexed":false,"internalType":"address"}],"anonymous":false},{"type":"event","name":"PerformanceFeeUpdated","inputs":[{"name":"newFee","type":"uint256","indexed":false,"internalType":"uint256"}],"anonymous":false},{"type":"event","name":"RebalanceIntervalUpdated","inputs":[{"name":"newInterval","type":"uint256","indexed":false,"internalType":"uint256"}],"anonymous":false},{"type":"event","name":"Rebalanced","inputs":[{"name":"timestamp","type":"uint256","indexed":false,"internalType":"uint256"},{"name":"totalAssets","type":"uint256","indexed":false,"internalType":"uint256"}],"anonymous":false},{"type":"event","name":"Transfer","inputs":[{"name":"from","type":"address","indexed":true,"internalType":"address"},{"name":"to","type":"address","indexed":true,"internalType":"address"},{"name":"value","type":"uint256","indexed":false,"internalType":"uint256"}],"anonymous":false},{"type":"event","name":"Unpaused","inputs":[{"name":"account","type":"address","indexed":false,"internalType":"address"}],"anonymous":false},{"type":"event","name":"Withdraw","inputs":[{"name":"sender","type":"address","indexed":true,"internalType":"address"},{"name":"receiver","type":"address","indexed":true,"internalType":"address"},{"name":"owner","type":"address","indexed":true,"internalType":"address"},{"name":"assets","type":"uint256","indexed":false,"internalType":"uint256"},{"name":"shares","type":"uint256","indexed":false,"internalType":"uint256"}],"anonymous":false},{"type":"event","name":"WithdrawalFeeUpdated","inputs":[{"name":"newFee","type":"uint256","indexed":false,"internalType":"uint256"}],"anonymous":false},{"type":"event","name":"Withdrawn","inputs":[{"name":"user","type":"address","indexed":true,"internalType":"address"},{"name":"assets","type":"uint256","indexed":false,"internalType":"uint256"},{"name":"shares","type":"uint256","indexed":false,"internalType":"uint256"}],"anonymous":false},{"type":"error","name":"ERC20InsufficientAllowance","inputs":[{"name":"spender","type":"address","internalType":"address"},{"name":"allowance","type":"uint256","internalType":"uint256"},{"name":"needed","type":"uint256","internalType":"uint256"}]},{"type":"error","name":"ERC20InsufficientBalance","inputs":[{"name":"sender","type":"address","internalType":"address"},{"name":"balance","type":"uint256","internalType":"uint256"},{"name":"needed","type":"uint256","internalType":"uint256"}]},{"type":"error","name":"ERC20InvalidApprover","inputs":[{"name":"approver","type":"address","internalType":"address"}]},{"type":"error","name":"ERC20InvalidReceiver","inputs":[{"name":"receiver","type":"address","internalType":"address"}]},{"type":"error","name":"ERC20InvalidSender","inputs":[{"name":"sender","type":"address","internalType":"address"}]},{"type":"error","name":"ERC20InvalidSpender","inputs":[{"name":"spender","type":"address","internalType":"address"}]},{"type":"error","name":"ERC4626ExceededMaxDeposit","inputs":[{"name":"receiver","type":"address","internalType":"address"},{"name":"assets","type":"uint256","internalType":"uint256"},{"name":"max","type":"uint256","internalType":"uint256"}]},{"type":"error","name":"ERC4626ExceededMaxMint","inputs":[{"name":"receiver","type":"address","internalType":"address"},{"name":"shares","type":"uint256","internalType":"uint256"},{"name":"max","type":"uint256","internalType":"uint256"}]},{"type":"error","name":"ERC4626ExceededMaxRedeem","inputs":[{"name":"owner","type":"address","internalType":"address"},{"name":"shares","type":"uint256","internalType":"uint256"},{"name":"max","type":"uint256","internalType":"uint256"}]},{"type":"error","name":"ERC4626ExceededMaxWithdraw","inputs":[{"name":"owner","type":"address","internalType":"address"},{"name":"assets","type":"uint256","internalType":"uint256"},{"name":"max","type":"uint256","internalType":"uint256"}]},{"type":"error","name":"EnforcedPause","inputs":[]},{"type":"error","name":"ExpectedPause","inputs":[]},{"type":"error","name":"OwnableInvalidOwner","inputs":[{"name":"owner","type":"address","internalType":"address"}]},{"type":"error","name":"OwnableUnauthorizedAccount","inputs":[{"name":"account","type":"address","internalType":"address"}]},{"type":"error","name":"ReentrancyGuardReentrantCall","inputs":[]},{"type":"error","name":"SafeERC20FailedOperation","inputs":[{"name":"token","type":"address","internalType":"address"}]}],"bytecode":{"object":"0x60e060405262015180600b556103e8600c556032600d55348015610021575f5ffd5b50604051614fa9380380614fa983398181016040528101906100439190610517565b33826040518060400160405280600781526020017f496e7369676874000000000000000000000000000000000000000000000000008152506040518060400160405280600681526020017f494e53494748000000000000000000000000000000000000000000000000000081525081600390816100c09190610792565b5080600490816100d09190610792565b5050505f5f6100e4836102b260201b60201c565b91509150816100f45760126100f6565b805b60ff1660a08160ff16815250508273ffffffffffffffffffffffffffffffffffffffff1660808173ffffffffffffffffffffffffffffffffffffffff16815250505050505f73ffffffffffffffffffffffffffffffffffffffff168173ffffffffffffffffffffffffffffffffffffffff16036101aa575f6040517f1e4fbdf70000000000000000000000000000000000000000000000000000000081526004016101a19190610870565b60405180910390fd5b6101b9816103bb60201b60201c565b5060016006819055505f73ffffffffffffffffffffffffffffffffffffffff168173ffffffffffffffffffffffffffffffffffffffff1603610230576040517f08c379a000000000000000000000000000000000000000000000000000000000815260040161022790610909565b60405180910390fd5b8073ffffffffffffffffffffffffffffffffffffffff1660c08173ffffffffffffffffffffffffffffffffffffffff168152505033600e5f6101000a81548173ffffffffffffffffffffffffffffffffffffffff021916908373ffffffffffffffffffffffffffffffffffffffff16021790555042600a8190555050506109e4565b5f5f5f5f8473ffffffffffffffffffffffffffffffffffffffff1660405160240160405160208183030381529060405263313ce56760e01b6020820180517bffffffffffffffffffffffffffffffffffffffffffffffffffffffff83818316178352505050506040516103259190610979565b5f60405180830381855afa9150503d805f811461035d576040519150601f19603f3d011682016040523d82523d5f602084013e610362565b606091505b509150915081801561037657506020815110155b156103ad575f8180602001905181019061039091906109b9565b905060ff801681116103ab57600181945094505050506103b6565b505b5f5f9350935050505b915091565b5f60055f9054906101000a900473ffffffffffffffffffffffffffffffffffffffff1690508160055f6101000a81548173ffffffffffffffffffffffffffffffffffffffff021916908373ffffffffffffffffffffffffffffffffffffffff1602179055508173ffffffffffffffffffffffffffffffffffffffff168173ffffffffffffffffffffffffffffffffffffffff167f8be0079c531659141344cd1fd0a4f28419497f9722a3daafe3b4186f6b6457e060405160405180910390a35050565b5f5ffd5b5f73ffffffffffffffffffffffffffffffffffffffff82169050919050565b5f6104ab82610482565b9050919050565b5f6104bc826104a1565b9050919050565b6104cc816104b2565b81146104d6575f5ffd5b50565b5f815190506104e7816104c3565b92915050565b6104f6816104a1565b8114610500575f5ffd5b50565b5f81519050610511816104ed565b92915050565b5f5f6040838503121561052d5761052c61047e565b5b5f61053a858286016104d9565b925050602061054b85828601610503565b9150509250929050565b5f81519050919050565b7f4e487b71000000000000000000000000000000000000000000000000000000005f52604160045260245ffd5b7f4e487b71000000000000000000000000000000000000000000000000000000005f52602260045260245ffd5b5f60028204905060018216806105d057607f821691505b6020821081036105e3576105e261058c565b5b50919050565b5f819050815f5260205f209050919050565b5f6020601f8301049050919050565b5f82821b905092915050565b5f600883026106457fffffffffffffffffffffffffffffffffffffffffffffffffffffffffffffffff8261060a565b61064f868361060a565b95508019841693508086168417925050509392505050565b5f819050919050565b5f819050919050565b5f61069361068e61068984610667565b610670565b610667565b9050919050565b5f819050919050565b6106ac83610679565b6106c06106b88261069a565b848454610616565b825550505050565b5f5f905090565b6106d76106c8565b6106e28184846106a3565b505050565b5b81811015610705576106fa5f826106cf565b6001810190506106e8565b5050565b601f82111561074a5761071b816105e9565b610724846105fb565b81016020851015610733578190505b61074761073f856105fb565b8301826106e7565b50505b505050565b5f82821c905092915050565b5f61076a5f198460080261074f565b1980831691505092915050565b5f610782838361075b565b9150826002028217905092915050565b61079b82610555565b67ffffffffffffffff8111156107b4576107b361055f565b5b6107be82546105b9565b6107c9828285610709565b5f60209050601f8311600181146107fa575f84156107e8578287015190505b6107f28582610777565b865550610859565b601f198416610808866105e9565b5f5b8281101561082f5784890151825560018201915060208501945060208101905061080a565b8683101561084c5784890151610848601f89168261075b565b8355505b6001600288020188555050505b505050505050565b61086a816104a1565b82525050565b5f6020820190506108835f830184610861565b92915050565b5f82825260208201905092915050565b7f5969656c645661756c743a20496e76616c6964207374726174656779206d616e5f8201527f6167657200000000000000000000000000000000000000000000000000000000602082015250565b5f6108f3602483610889565b91506108fe82610899565b604082019050919050565b5f6020820190508181035f830152610920816108e7565b9050919050565b5f81519050919050565b5f81905092915050565b8281835e5f83830152505050565b5f61095382610927565b61095d8185610931565b935061096d81856020860161093b565b80840191505092915050565b5f6109848284610949565b915081905092915050565b61099881610667565b81146109a2575f5ffd5b50565b5f815190506109b38161098f565b92915050565b5f602082840312156109ce576109cd61047e565b5b5f6109db848285016109a5565b91505092915050565b60805160a05160c051614555610a545f395f8181610af5015281816116a10152818161173f01528181611acc01528181611b6a0152818161217e0152818161221d015281816125810152818161261f015281816128d2015261297b01525f610a9e01525f610acf01526145555ff3fe608060405234801561000f575f5ffd5b5060043610610288575f3560e01c80637d7c2a1c1161015a578063b460af94116100cc578063dd19171911610085578063dd19171914610818578063dd62ed3e14610822578063e74b981b14610852578063ef8b30f71461086e578063f2fde38b1461089e578063ff50abdc146108ba57610288565b8063b460af94146106f8578063ba08765214610728578063c63d75b614610758578063c6e6f59214610788578063ce96cb77146107b8578063d905777e146107e857610288565b80638ed955b91161011e5780638ed955b91461061057806394bf804d1461062e57806395d89b411461065e578063a9059cbb1461067c578063ac1e5025146106ac578063b3d7f6b9146106c857610288565b80637d7c2a1c146105a25780638456cb59146105ac57806387788782146105b65780638bc7e8c4146105d45780638da5cb5b146105f257610288565b806339b70e38116101fe5780635b7dcaed116101b75780635b7dcaed146104e25780635c975abb146104fe5780636e553f651461051c57806370897b231461054c57806370a0823114610568578063715018a61461059857610288565b806339b70e381461041e5780633f4ba83a1461043c578063402d267d1461044657806346904840146104765780634b319713146104945780634cdad506146104b257610288565b8063106b9ca111610250578063106b9ca11461035857806316d1d9161461037657806318160ddd1461039457806323b872dd146103b2578063313ce567146103e257806338d52e0f1461040057610288565b806301e1d1141461028c57806306fdde03146102aa57806307a2d13a146102c8578063095ea7b3146102f85780630a28a47714610328575b5f5ffd5b6102946108d8565b6040516102a19190613696565b60405180910390f35b6102b2610979565b6040516102bf919061371f565b60405180910390f35b6102e260048036038101906102dd919061376d565b610a09565b6040516102ef9190613696565b60405180910390f35b610312600480360381019061030d91906137f2565b610a1b565b60405161031f919061384a565b60405180910390f35b610342600480360381019061033d919061376d565b610a3d565b60405161034f9190613696565b60405180910390f35b610360610a50565b60405161036d9190613696565b60405180910390f35b61037e610a56565b60405161038b9190613696565b60405180910390f35b61039c610a5c565b6040516103a99190613696565b60405180910390f35b6103cc60048036038101906103c79190613863565b610a65565b6040516103d9919061384a565b60405180910390f35b6103ea610a93565b6040516103f791906138ce565b60405180910390f35b610408610acc565b60405161041591906138f6565b60405180910390f35b610426610af3565b604051610433919061396a565b60405180910390f35b610444610b17565b005b610460600480360381019061045b9190613983565b610b29565b60405161046d9190613696565b60405180910390f35b61047e610b52565b60405161048b91906138f6565b60405180910390f35b61049c610b77565b6040516104a99190613696565b60405180910390f35b6104cc60048036038101906104c7919061376d565b610b7d565b6040516104d99190613696565b60405180910390f35b6104fc60048036038101906104f7919061376d565b610b8f565b005b610506610c63565b604051610513919061384a565b60405180910390f35b610536600480360381019061053191906139ae565b610c78565b6040516105439190613696565b60405180910390f35b6105666004803603810190610561919061376d565b610d71565b005b610582600480360381019061057d9190613983565b610dff565b60405161058f9190613696565b60405180910390f35b6105a0610e44565b005b6105aa610e57565b005b6105b4610e69565b005b6105be610e7b565b6040516105cb9190613696565b60405180910390f35b6105dc610e81565b6040516105e99190613696565b60405180910390f35b6105fa610e87565b60405161060791906138f6565b60405180910390f35b610618610eaf565b6040516106259190613696565b60405180910390f35b610648600480360381019061064391906139ae565b610ec5565b6040516106559190613696565b60405180910390f35b610666610fbe565b604051610673919061371f565b60405180910390f35b610696600480360381019061069191906137f2565b61104e565b6040516106a3919061384a565b60405180910390f35b6106c660048036038101906106c1919061376d565b611070565b005b6106e260048036038101906106dd919061376d565b6110fe565b6040516106ef9190613696565b60405180910390f35b610712600480360381019061070d91906139ec565b611111565b60405161071f9190613696565b60405180910390f35b610742600480360381019061073d91906139ec565b6113a0565b60405161074f9190613696565b60405180910390f35b610772600480360381019061076d9190613983565b61162c565b60405161077f9190613696565b60405180910390f35b6107a2600480360381019061079d919061376d565b611655565b6040516107af9190613696565b60405180910390f35b6107d260048036038101906107cd9190613983565b611667565b6040516107df9190613696565b60405180910390f35b61080260048036038101906107fd9190613983565b611681565b60405161080f9190613696565b60405180910390f35b610820611692565b005b61083c60048036038101906108379190613a3c565b6118aa565b6040516108499190613696565b60405180910390f35b61086c60048036038101906108679190613983565b61192c565b005b6108886004803603810190610883919061376d565b611a28565b6040516108959190613696565b60405180910390f35b6108b860048036038101906108b39190613983565b611a3a565b005b6108c2611abe565b6040516108cf9190613696565b60405180910390f35b5f5f6108e2610acc565b73ffffffffffffffffffffffffffffffffffffffff166370a08231306040518263ffffffff1660e01b815260040161091a91906138f6565b602060405180830381865afa158015610935573d5f5f3e3d5ffd5b505050506040513d601f19601f820116820180604052508101906109599190613a8e565b90505f610964611ac4565b905080826109729190613ae6565b9250505090565b60606003805461098890613b46565b80601f01602080910402602001604051908101604052809291908181526020018280546109b490613b46565b80156109ff5780601f106109d6576101008083540402835291602001916109ff565b820191905f5260205f20905b8154815290600101906020018083116109e257829003601f168201915b5050505050905090565b5f610a14825f611ca1565b9050919050565b5f5f610a25611cf9565b9050610a32818585611d00565b600191505092915050565b5f610a49826001611d12565b9050919050565b600a5481565b600b5481565b5f600254905090565b5f5f610a6f611cf9565b9050610a7c858285611d6a565b610a87858585611dfd565b60019150509392505050565b5f610a9c611eed565b7f0000000000000000000000000000000000000000000000000000000000000000610ac79190613b76565b905090565b5f7f0000000000000000000000000000000000000000000000000000000000000000905090565b7f000000000000000000000000000000000000000000000000000000000000000081565b610b1f611ef4565b610b27611f7b565b565b5f7fffffffffffffffffffffffffffffffffffffffffffffffffffffffffffffffff9050919050565b600e5f9054906101000a900473ffffffffffffffffffffffffffffffffffffffff1681565b60095481565b5f610b88825f611ca1565b9050919050565b610b97611ef4565b610e10811015610bdc576040517f08c379a0000000000000000000000000000000000000000000000000000000008152600401610bd390613bf4565b60405180910390fd5b62278d00811115610c22576040517f08c379a0000000000000000000000000000000000000000000000000000000008152600401610c1990613c5c565b60405180910390fd5b80600b819055507f2d56a506283276801ee653d2d0e9e513b43b393bc25009f1ea9272d4ca000ea681604051610c589190613696565b60405180910390a150565b5f60075f9054906101000a900460ff16905090565b5f610c81611fdc565b610c89612022565b5f8311610ccb576040517f08c379a0000000000000000000000000000000000000000000000000000000008152600401610cc290613cc4565b60405180910390fd5b5f610cd68484612063565b90508360085f828254610ce99190613ae6565b925050819055508273ffffffffffffffffffffffffffffffffffffffff167f73a19dd210f1a7f902193214c0ee91dd35ee5b4d920cba8d519eca65a7b488ca8583604051610d38929190613ce2565b60405180910390a2600b54600a54610d509190613ae6565b4210610d5f57610d5e6120e3565b5b80915050610d6b61244e565b92915050565b610d79611ef4565b6107d0811115610dbe576040517f08c379a0000000000000000000000000000000000000000000000000000000008152600401610db590613d53565b60405180910390fd5b80600c819055507f9b49d0cd76012d9c67241c2f68f836efbaf50ea29901a250040671402d5263f581604051610df49190613696565b60405180910390a150565b5f5f5f8373ffffffffffffffffffffffffffffffffffffffff1673ffffffffffffffffffffffffffffffffffffffff1681526020019081526020015f20549050919050565b610e4c611ef4565b610e555f612458565b565b610e5f611ef4565b610e676120e3565b565b610e71611ef4565b610e7961251b565b565b600c5481565b600d5481565b5f60055f9054906101000a900473ffffffffffffffffffffffffffffffffffffffff16905090565b5f610eb8611ef4565b610ec061257d565b905090565b5f610ece611fdc565b610ed6612022565b5f8311610f18576040517f08c379a0000000000000000000000000000000000000000000000000000000008152600401610f0f90613dbb565b60405180910390fd5b5f610f23848461284b565b90508060085f828254610f369190613ae6565b925050819055508273ffffffffffffffffffffffffffffffffffffffff167f73a19dd210f1a7f902193214c0ee91dd35ee5b4d920cba8d519eca65a7b488ca8286604051610f85929190613ce2565b60405180910390a2600b54600a54610f9d9190613ae6565b4210610fac57610fab6120e3565b5b80915050610fb861244e565b92915050565b606060048054610fcd90613b46565b80601f0160208091040260200160405190810160405280929190818152602001828054610ff990613b46565b80156110445780601f1061101b57610100808354040283529160200191611044565b820191905f5260205f20905b81548152906001019060200180831161102757829003601f168201915b5050505050905090565b5f5f611058611cf9565b9050611065818585611dfd565b600191505092915050565b611078611ef4565b6101f48111156110bd576040517f08c379a00000000000000000000000000000000000000000000000000000000081526004016110b490613d53565b60405180910390fd5b80600d819055507fe94edcc114da5287ecb30ee8aacf12e6c16b11b8583d7f9e477ab1616e33d53d816040516110f39190613696565b60405180910390a150565b5f61110a826001611ca1565b9050919050565b5f61111a611fdc565b5f841161115c576040517f08c379a000000000000000000000000000000000000000000000000000000000815260040161115390613e23565b60405180910390fd5b5f612710600d548661116e9190613e41565b6111789190613eaf565b90505f81866111879190613edf565b90505f611192610acc565b73ffffffffffffffffffffffffffffffffffffffff166370a08231306040518263ffffffff1660e01b81526004016111ca91906138f6565b602060405180830381865afa1580156111e5573d5f5f3e3d5ffd5b505050506040513d601f19601f820116820180604052508101906112099190613a8e565b9050868110156112285761122781886112229190613edf565b6128cb565b5b5f611234888888612ba3565b90508760095f8282546112479190613ae6565b925050819055505f841180156112aa57505f73ffffffffffffffffffffffffffffffffffffffff16600e5f9054906101000a900473ffffffffffffffffffffffffffffffffffffffff1673ffffffffffffffffffffffffffffffffffffffff1614155b1561133a57611302600e5f9054906101000a900473ffffffffffffffffffffffffffffffffffffffff16856112dd610acc565b73ffffffffffffffffffffffffffffffffffffffff16612c259092919063ffffffff16565b7fdfba92731fbb9afc3b23b557d4f5043609e05ea68af13a61a9ceb6e0bef6b42f846040516113319190613f5c565b60405180910390a15b8673ffffffffffffffffffffffffffffffffffffffff167f92ccf450a286a957af52509bc1c9939d1a6a481783e142e41e2499f0bb66ebc68483604051611382929190613ce2565b60405180910390a28094505050505061139961244e565b9392505050565b5f6113a9611fdc565b5f84116113eb576040517f08c379a00000000000000000000000000000000000000000000000000000000081526004016113e290613fd2565b60405180910390fd5b5f6113f585610b7d565b90505f612710600d54836114099190613e41565b6114139190613eaf565b90505f61141e610acc565b73ffffffffffffffffffffffffffffffffffffffff166370a08231306040518263ffffffff1660e01b815260040161145691906138f6565b602060405180830381865afa158015611471573d5f5f3e3d5ffd5b505050506040513d601f19601f820116820180604052508101906114959190613a8e565b9050828110156114b4576114b381846114ae9190613edf565b6128cb565b5b5f6114c0888888612ca4565b90508060095f8282546114d39190613ae6565b925050819055505f8311801561153657505f73ffffffffffffffffffffffffffffffffffffffff16600e5f9054906101000a900473ffffffffffffffffffffffffffffffffffffffff1673ffffffffffffffffffffffffffffffffffffffff1614155b156115c65761158e600e5f9054906101000a900473ffffffffffffffffffffffffffffffffffffffff1684611569610acc565b73ffffffffffffffffffffffffffffffffffffffff16612c259092919063ffffffff16565b7fdfba92731fbb9afc3b23b557d4f5043609e05ea68af13a61a9ceb6e0bef6b42f836040516115bd9190613f5c565b60405180910390a15b8673ffffffffffffffffffffffffffffffffffffffff167f92ccf450a286a957af52509bc1c9939d1a6a481783e142e41e2499f0bb66ebc6828a60405161160e929190613ce2565b60405180910390a28094505050505061162561244e565b9392505050565b5f7fffffffffffffffffffffffffffffffffffffffffffffffffffffffffffffffff9050919050565b5f611660825f611d12565b9050919050565b5f61167a61167483610dff565b5f611ca1565b9050919050565b5f61168b82610dff565b9050919050565b61169a611ef4565b5f5f90505f7f000000000000000000000000000000000000000000000000000000000000000073ffffffffffffffffffffffffffffffffffffffff166331e19cfa6040518163ffffffff1660e01b8152600401602060405180830381865afa158015611708573d5f5f3e3d5ffd5b505050506040513d601f19601f8201168201806040525081019061172c9190613a8e565b90505f5f90505b8181101561186e575f5f7f000000000000000000000000000000000000000000000000000000000000000073ffffffffffffffffffffffffffffffffffffffff1663cfc0cc34846040518263ffffffff1660e01b81526004016117969190613696565b606060405180830381865afa1580156117b1573d5f5f3e3d5ffd5b505050506040513d601f19601f820116820180604052508101906117d5919061402e565b9250509150801561185f578173ffffffffffffffffffffffffffffffffffffffff1663853828b66040518163ffffffff1660e01b81526004016020604051808303815f875af192505050801561184957506040513d601f19601f820116820180604052508101906118469190613a8e565b60015b1561185e57808661185a9190613ae6565b9550505b5b50508080600101915050611733565b507f99d7f8b71cfb9126984f7a5eed3a40e64a8959e9b0e442221546fb04ec6a489c8260405161189e9190613696565b60405180910390a15050565b5f60015f8473ffffffffffffffffffffffffffffffffffffffff1673ffffffffffffffffffffffffffffffffffffffff1681526020019081526020015f205f8373ffffffffffffffffffffffffffffffffffffffff1673ffffffffffffffffffffffffffffffffffffffff1681526020019081526020015f2054905092915050565b611934611ef4565b5f73ffffffffffffffffffffffffffffffffffffffff168173ffffffffffffffffffffffffffffffffffffffff16036119a2576040517f08c379a0000000000000000000000000000000000000000000000000000000008152600401611999906140c8565b60405180910390fd5b80600e5f6101000a81548173ffffffffffffffffffffffffffffffffffffffff021916908373ffffffffffffffffffffffffffffffffffffffff1602179055508073ffffffffffffffffffffffffffffffffffffffff167f7a7b5a0a132f9e0581eb8527f66eae9ee89c2a3e79d4ac7e41a1f1f4d48a7fc260405160405180910390a250565b5f611a33825f611d12565b9050919050565b611a42611ef4565b5f73ffffffffffffffffffffffffffffffffffffffff168173ffffffffffffffffffffffffffffffffffffffff1603611ab2575f6040517f1e4fbdf7000000000000000000000000000000000000000000000000000000008152600401611aa991906138f6565b60405180910390fd5b611abb81612458565b50565b60085481565b5f5f5f90505f7f000000000000000000000000000000000000000000000000000000000000000073ffffffffffffffffffffffffffffffffffffffff166331e19cfa6040518163ffffffff1660e01b8152600401602060405180830381865afa158015611b33573d5f5f3e3d5ffd5b505050506040513d601f19601f82011682018060405250810190611b579190613a8e565b90505f5f90505b81811015611c98575f5f7f000000000000000000000000000000000000000000000000000000000000000073ffffffffffffffffffffffffffffffffffffffff1663cfc0cc34846040518263ffffffff1660e01b8152600401611bc19190613696565b606060405180830381865afa158015611bdc573d5f5f3e3d5ffd5b505050506040513d601f19601f82011682018060405250810190611c00919061402e565b92505091508015611c89578173ffffffffffffffffffffffffffffffffffffffff1663722713f76040518163ffffffff1660e01b8152600401602060405180830381865afa925050508015611c7357506040513d601f19601f82011682018060405250810190611c709190613a8e565b60015b15611c88578086611c849190613ae6565b9550505b5b50508080600101915050611b5e565b50819250505090565b5f611cf16001611caf6108d8565b611cb99190613ae6565b611cc1611eed565b600a611ccd9190614215565b611cd5610a5c565b611cdf9190613ae6565b8486612d26909392919063ffffffff16565b905092915050565b5f33905090565b611d0d8383836001612d73565b505050565b5f611d62611d1e611eed565b600a611d2a9190614215565b611d32610a5c565b611d3c9190613ae6565b6001611d466108d8565b611d509190613ae6565b8486612d26909392919063ffffffff16565b905092915050565b5f611d7584846118aa565b90507fffffffffffffffffffffffffffffffffffffffffffffffffffffffffffffffff811015611df75781811015611de8578281836040517ffb8f41b2000000000000000000000000000000000000000000000000000000008152600401611ddf9392919061425f565b60405180910390fd5b611df684848484035f612d73565b5b50505050565b5f73ffffffffffffffffffffffffffffffffffffffff168373ffffffffffffffffffffffffffffffffffffffff1603611e6d575f6040517f96c6fd1e000000000000000000000000000000000000000000000000000000008152600401611e6491906138f6565b60405180910390fd5b5f73ffffffffffffffffffffffffffffffffffffffff168273ffffffffffffffffffffffffffffffffffffffff1603611edd575f6040517fec442f05000000000000000000000000000000000000000000000000000000008152600401611ed491906138f6565b60405180910390fd5b611ee8838383612f42565b505050565b5f5f905090565b611efc611cf9565b73ffffffffffffffffffffffffffffffffffffffff16611f1a610e87565b73ffffffffffffffffffffffffffffffffffffffff1614611f7957611f3d611cf9565b6040517f118cdaa7000000000000000000000000000000000000000000000000000000008152600401611f7091906138f6565b60405180910390fd5b565b611f8361315b565b5f60075f6101000a81548160ff0219169083151502179055507f5db9ee0a495bf2e6ff9c91a7834c1ba4fdd244a5e8aa4e537bd38aeae4b073aa611fc5611cf9565b604051611fd291906138f6565b60405180910390a1565b600260065403612018576040517f3ee5aeb500000000000000000000000000000000000000000000000000000000815260040160405180910390fd5b6002600681905550565b61202a610c63565b15612061576040517fd93c066500000000000000000000000000000000000000000000000000000000815260040160405180910390fd5b565b5f5f61206e83610b29565b9050808411156120b9578284826040517f79012fb20000000000000000000000000000000000000000000000000000000081526004016120b09392919061425f565b60405180910390fd5b5f6120c385611a28565b90506120d86120d0611cf9565b85878461319b565b809250505092915050565b6120eb61257d565b505f6120f5610acc565b73ffffffffffffffffffffffffffffffffffffffff166370a08231306040518263ffffffff1660e01b815260040161212d91906138f6565b602060405180830381865afa158015612148573d5f5f3e3d5ffd5b505050506040513d601f19601f8201168201806040525081019061216c9190613a8e565b90505f810361217b575061244c565b5f7f000000000000000000000000000000000000000000000000000000000000000073ffffffffffffffffffffffffffffffffffffffff166331e19cfa6040518163ffffffff1660e01b8152600401602060405180830381865afa1580156121e5573d5f5f3e3d5ffd5b505050506040513d601f19601f820116820180604052508101906122099190613a8e565b90505f5f90505b81811015612401575f5f5f7f000000000000000000000000000000000000000000000000000000000000000073ffffffffffffffffffffffffffffffffffffffff1663cfc0cc34856040518263ffffffff1660e01b81526004016122749190613696565b606060405180830381865afa15801561228f573d5f5f3e3d5ffd5b505050506040513d601f19601f820116820180604052508101906122b3919061402e565b9250925092508080156122c557505f82115b156123f1575f61271083886122da9190613e41565b6122e49190613eaf565b90505f8111156123ef576122f6610acc565b73ffffffffffffffffffffffffffffffffffffffff1663095ea7b385836040518363ffffffff1660e01b8152600401612330929190614294565b6020604051808303815f875af115801561234c573d5f5f3e3d5ffd5b505050506040513d601f19601f8201168201806040525081019061237091906142bb565b508373ffffffffffffffffffffffffffffffffffffffff16636e553f6582306040518363ffffffff1660e01b81526004016123ac9291906142e6565b6020604051808303815f875af19250505080156123e757506040513d601f19601f820116820180604052508101906123e49190613a8e565b60015b156123ee57505b5b505b5050508080600101915050612210565b5042600a819055507fc257294ad49c215e1a248c91a86bc2612b4781d9677285cc9c14498f485ef122426124336108d8565b604051612441929190613ce2565b60405180910390a150505b565b6001600681905550565b5f60055f9054906101000a900473ffffffffffffffffffffffffffffffffffffffff1690508160055f6101000a81548173ffffffffffffffffffffffffffffffffffffffff021916908373ffffffffffffffffffffffffffffffffffffffff1602179055508173ffffffffffffffffffffffffffffffffffffffff168173ffffffffffffffffffffffffffffffffffffffff167f8be0079c531659141344cd1fd0a4f28419497f9722a3daafe3b4186f6b6457e060405160405180910390a35050565b612523612022565b600160075f6101000a81548160ff0219169083151502179055507f62e78cea01bee320cd4e420270b5ea74000d11b0c9f74754ebdbfc544b05a258612566611cf9565b60405161257391906138f6565b60405180910390a1565b5f5f7f000000000000000000000000000000000000000000000000000000000000000073ffffffffffffffffffffffffffffffffffffffff166331e19cfa6040518163ffffffff1660e01b8152600401602060405180830381865afa1580156125e8573d5f5f3e3d5ffd5b505050506040513d601f19601f8201168201806040525081019061260c9190613a8e565b90505f5f90505b8181101561274e575f5f7f000000000000000000000000000000000000000000000000000000000000000073ffffffffffffffffffffffffffffffffffffffff1663cfc0cc34846040518263ffffffff1660e01b81526004016126769190613696565b606060405180830381865afa158015612691573d5f5f3e3d5ffd5b505050506040513d601f19601f820116820180604052508101906126b5919061402e565b9250509150801561273f578173ffffffffffffffffffffffffffffffffffffffff16634641257d6040518163ffffffff1660e01b81526004016020604051808303815f875af192505050801561272957506040513d601f19601f820116820180604052508101906127269190613a8e565b60015b1561273e57808661273a9190613ae6565b9550505b5b50508080600101915050612613565b505f821115612847575f612710600c54846127699190613e41565b6127739190613eaf565b90505f811180156127d157505f73ffffffffffffffffffffffffffffffffffffffff16600e5f9054906101000a900473ffffffffffffffffffffffffffffffffffffffff1673ffffffffffffffffffffffffffffffffffffffff1614155b1561280e577fdfba92731fbb9afc3b23b557d4f5043609e05ea68af13a61a9ceb6e0bef6b42f816040516128059190614357565b60405180910390a15b7f8e55ccfc9778ff8eba1646d765cf1982537ce0f9257054a17b48aad7452501838360405161283d9190613696565b60405180910390a1505b5090565b5f5f6128568361162c565b9050808411156128a1578284826040517f284ff6670000000000000000000000000000000000000000000000000000000081526004016128989392919061425f565b60405180910390fd5b5f6128ab856110fe565b90506128c06128b8611cf9565b85838861319b565b809250505092915050565b5f8190505f7f000000000000000000000000000000000000000000000000000000000000000073ffffffffffffffffffffffffffffffffffffffff166331e19cfa6040518163ffffffff1660e01b8152600401602060405180830381865afa158015612939573d5f5f3e3d5ffd5b505050506040513d601f19601f8201168201806040525081019061295d9190613a8e565b90505f5f90505b818110801561297257505f83115b15612b51575f5f7f000000000000000000000000000000000000000000000000000000000000000073ffffffffffffffffffffffffffffffffffffffff1663cfc0cc34846040518263ffffffff1660e01b81526004016129d29190613696565b606060405180830381865afa1580156129ed573d5f5f3e3d5ffd5b505050506040513d601f19601f82011682018060405250810190612a11919061402e565b92505091508015612b3c578173ffffffffffffffffffffffffffffffffffffffff1663722713f76040518163ffffffff1660e01b8152600401602060405180830381865afa925050508015612a8457506040513d601f19601f82011682018060405250810190612a819190613a8e565b60015b15612b3b575f811115612b39575f818711612a9f5786612aa1565b815b90508373ffffffffffffffffffffffffffffffffffffffff1663b460af948233612ac9610e87565b6040518463ffffffff1660e01b8152600401612ae793929190614383565b6020604051808303815f875af1925050508015612b2257506040513d601f19601f82011682018060405250810190612b1f9190613a8e565b60015b15612b37578088612b339190613edf565b9750505b505b505b5b50508080612b49906143b8565b915050612964565b505f821480612b5f57508282105b612b9e576040517f08c379a0000000000000000000000000000000000000000000000000000000008152600401612b959061446f565b60405180910390fd5b505050565b5f5f612bae83611667565b905080851115612bf9578285826040517ffe9cceec000000000000000000000000000000000000000000000000000000008152600401612bf09392919061425f565b60405180910390fd5b5f612c0386610a3d565b9050612c19612c10611cf9565b86868985613225565b80925050509392505050565b612c9f838473ffffffffffffffffffffffffffffffffffffffff1663a9059cbb8585604051602401612c58929190614294565b604051602081830303815290604052915060e01b6020820180517bffffffffffffffffffffffffffffffffffffffffffffffffffffffff8381831617835250505050613305565b505050565b5f5f612caf83611681565b905080851115612cfa578285826040517fb94abeec000000000000000000000000000000000000000000000000000000008152600401612cf19392919061425f565b60405180910390fd5b5f612d0486610b7d565b9050612d1a612d11611cf9565b8686848a613225565b80925050509392505050565b5f612d54612d33836133a0565b8015612d4f57505f8480612d4a57612d49613e82565b5b868809115b6133cd565b612d5f8686866133d8565b612d699190613ae6565b9050949350505050565b5f73ffffffffffffffffffffffffffffffffffffffff168473ffffffffffffffffffffffffffffffffffffffff1603612de3575f6040517fe602df05000000000000000000000000000000000000000000000000000000008152600401612dda91906138f6565b60405180910390fd5b5f73ffffffffffffffffffffffffffffffffffffffff168373ffffffffffffffffffffffffffffffffffffffff1603612e53575f6040517f94280d62000000000000000000000000000000000000000000000000000000008152600401612e4a91906138f6565b60405180910390fd5b8160015f8673ffffffffffffffffffffffffffffffffffffffff1673ffffffffffffffffffffffffffffffffffffffff1681526020019081526020015f205f8573ffffffffffffffffffffffffffffffffffffffff1673ffffffffffffffffffffffffffffffffffffffff1681526020019081526020015f20819055508015612f3c578273ffffffffffffffffffffffffffffffffffffffff168473ffffffffffffffffffffffffffffffffffffffff167f8c5be1e5ebec7d5bd14f71427d1e84f3dd0314c0f7b2291e5b200ac8c7c3b92584604051612f339190613696565b60405180910390a35b50505050565b5f73ffffffffffffffffffffffffffffffffffffffff168373ffffffffffffffffffffffffffffffffffffffff1603612f92578060025f828254612f869190613ae6565b92505081905550613060565b5f5f5f8573ffffffffffffffffffffffffffffffffffffffff1673ffffffffffffffffffffffffffffffffffffffff1681526020019081526020015f205490508181101561301b578381836040517fe450d38c0000000000000000000000000000000000000000000000000000000081526004016130129392919061425f565b60405180910390fd5b8181035f5f8673ffffffffffffffffffffffffffffffffffffffff1673ffffffffffffffffffffffffffffffffffffffff1681526020019081526020015f2081905550505b5f73ffffffffffffffffffffffffffffffffffffffff168273ffffffffffffffffffffffffffffffffffffffff16036130a7578060025f82825403925050819055506130f1565b805f5f8473ffffffffffffffffffffffffffffffffffffffff1673ffffffffffffffffffffffffffffffffffffffff1681526020019081526020015f205f82825401925050819055505b8173ffffffffffffffffffffffffffffffffffffffff168373ffffffffffffffffffffffffffffffffffffffff167fddf252ad1be2c89b69c2b068fc378daa952ba7f163c4a11628f55a4df523b3ef8360405161314e9190613696565b60405180910390a3505050565b613163610c63565b613199576040517f8dfc202b00000000000000000000000000000000000000000000000000000000815260040160405180910390fd5b565b6131ae6131a6610acc565b8530856134b7565b6131b88382613539565b8273ffffffffffffffffffffffffffffffffffffffff168473ffffffffffffffffffffffffffffffffffffffff167fdcbc1c05240f31ff3ad067ef1ee35ce4997762752e3a095284754544f4c709d78484604051613217929190613ce2565b60405180910390a350505050565b8273ffffffffffffffffffffffffffffffffffffffff168573ffffffffffffffffffffffffffffffffffffffff161461326457613263838683611d6a565b5b61326e83826135b8565b613280613279610acc565b8584612c25565b8273ffffffffffffffffffffffffffffffffffffffff168473ffffffffffffffffffffffffffffffffffffffff168673ffffffffffffffffffffffffffffffffffffffff167ffbde797d201c681b91056529119e0b02407c7bb96a4a2c75c01fc9667232c8db85856040516132f6929190613ce2565b60405180910390a45050505050565b5f5f60205f8451602086015f885af180613324576040513d5f823e3d81fd5b3d92505f519150505f821461333d576001811415613358565b5f8473ffffffffffffffffffffffffffffffffffffffff163b145b1561339a57836040517f5274afe700000000000000000000000000000000000000000000000000000000815260040161339191906138f6565b60405180910390fd5b50505050565b5f600160028360038111156133b8576133b761448d565b5b6133c291906144ba565b60ff16149050919050565b5f8115159050919050565b5f5f5f6133e58686613637565b915091505f820361340a57838181613400576133ff613e82565b5b04925050506134b0565b818411613429576134286134235f861460126011613654565b61366d565b5b5f8486880990508181118303925080820391505f855f038616905080860495508083049250600181825f0304019050808402831792505f600287600302189050808702600203810290508087026002038102905080870260020381029050808702600203810290508087026002038102905080870260020381029050808402955050505050505b9392505050565b613533848573ffffffffffffffffffffffffffffffffffffffff166323b872dd8686866040516024016134ec939291906144ea565b604051602081830303815290604052915060e01b6020820180517bffffffffffffffffffffffffffffffffffffffffffffffffffffffff8381831617835250505050613305565b50505050565b5f73ffffffffffffffffffffffffffffffffffffffff168273ffffffffffffffffffffffffffffffffffffffff16036135a9575f6040517fec442f050000000000000000000000000000000000000000000000000000000081526004016135a091906138f6565b60405180910390fd5b6135b45f8383612f42565b5050565b5f73ffffffffffffffffffffffffffffffffffffffff168273ffffffffffffffffffffffffffffffffffffffff1603613628575f6040517f96c6fd1e00000000000000000000000000000000000000000000000000000000815260040161361f91906138f6565b60405180910390fd5b613633825f83612f42565b5050565b5f5f5f198385098385029150818110828203039250509250929050565b5f61365e846133cd565b82841802821890509392505050565b634e487b715f52806020526024601cfd5b5f819050919050565b6136908161367e565b82525050565b5f6020820190506136a95f830184613687565b92915050565b5f81519050919050565b5f82825260208201905092915050565b8281835e5f83830152505050565b5f601f19601f8301169050919050565b5f6136f1826136af565b6136fb81856136b9565b935061370b8185602086016136c9565b613714816136d7565b840191505092915050565b5f6020820190508181035f83015261373781846136e7565b905092915050565b5f5ffd5b61374c8161367e565b8114613756575f5ffd5b50565b5f8135905061376781613743565b92915050565b5f602082840312156137825761378161373f565b5b5f61378f84828501613759565b91505092915050565b5f73ffffffffffffffffffffffffffffffffffffffff82169050919050565b5f6137c182613798565b9050919050565b6137d1816137b7565b81146137db575f5ffd5b50565b5f813590506137ec816137c8565b92915050565b5f5f604083850312156138085761380761373f565b5b5f613815858286016137de565b925050602061382685828601613759565b9150509250929050565b5f8115159050919050565b61384481613830565b82525050565b5f60208201905061385d5f83018461383b565b92915050565b5f5f5f6060848603121561387a5761387961373f565b5b5f613887868287016137de565b9350506020613898868287016137de565b92505060406138a986828701613759565b9150509250925092565b5f60ff82169050919050565b6138c8816138b3565b82525050565b5f6020820190506138e15f8301846138bf565b92915050565b6138f0816137b7565b82525050565b5f6020820190506139095f8301846138e7565b92915050565b5f819050919050565b5f61393261392d61392884613798565b61390f565b613798565b9050919050565b5f61394382613918565b9050919050565b5f61395482613939565b9050919050565b6139648161394a565b82525050565b5f60208201905061397d5f83018461395b565b92915050565b5f602082840312156139985761399761373f565b5b5f6139a5848285016137de565b91505092915050565b5f5f604083850312156139c4576139c361373f565b5b5f6139d185828601613759565b92505060206139e2858286016137de565b9150509250929050565b5f5f5f60608486031215613a0357613a0261373f565b5b5f613a1086828701613759565b9350506020613a21868287016137de565b9250506040613a32868287016137de565b9150509250925092565b5f5f60408385031215613a5257613a5161373f565b5b5f613a5f858286016137de565b9250506020613a70858286016137de565b9150509250929050565b5f81519050613a8881613743565b92915050565b5f60208284031215613aa357613aa261373f565b5b5f613ab084828501613a7a565b91505092915050565b7f4e487b71000000000000000000000000000000000000000000000000000000005f52601160045260245ffd5b5f613af08261367e565b9150613afb8361367e565b9250828201905080821115613b1357613b12613ab9565b5b92915050565b7f4e487b71000000000000000000000000000000000000000000000000000000005f52602260045260245ffd5b5f6002820490506001821680613b5d57607f821691505b602082108103613b7057613b6f613b19565b5b50919050565b5f613b80826138b3565b9150613b8b836138b3565b9250828201905060ff811115613ba457613ba3613ab9565b5b92915050565b7f5969656c645661756c743a20496e74657276616c20746f6f2073686f727400005f82015250565b5f613bde601e836136b9565b9150613be982613baa565b602082019050919050565b5f6020820190508181035f830152613c0b81613bd2565b9050919050565b7f5969656c645661756c743a20496e74657276616c20746f6f206c6f6e670000005f82015250565b5f613c46601d836136b9565b9150613c5182613c12565b602082019050919050565b5f6020820190508181035f830152613c7381613c3a565b9050919050565b7f5969656c645661756c743a2043616e6e6f74206465706f7369742030000000005f82015250565b5f613cae601c836136b9565b9150613cb982613c7a565b602082019050919050565b5f6020820190508181035f830152613cdb81613ca2565b9050919050565b5f604082019050613cf55f830185613687565b613d026020830184613687565b9392505050565b7f5969656c645661756c743a2046656520746f6f206869676800000000000000005f82015250565b5f613d3d6018836136b9565b9150613d4882613d09565b602082019050919050565b5f6020820190508181035f830152613d6a81613d31565b9050919050565b7f5969656c645661756c743a2043616e6e6f74206d696e742030000000000000005f82015250565b5f613da56019836136b9565b9150613db082613d71565b602082019050919050565b5f6020820190508181035f830152613dd281613d99565b9050919050565b7f5969656c645661756c743a2043616e6e6f7420776974686472617720300000005f82015250565b5f613e0d601d836136b9565b9150613e1882613dd9565b602082019050919050565b5f6020820190508181035f830152613e3a81613e01565b9050919050565b5f613e4b8261367e565b9150613e568361367e565b9250828202613e648161367e565b91508282048414831517613e7b57613e7a613ab9565b5b5092915050565b7f4e487b71000000000000000000000000000000000000000000000000000000005f52601260045260245ffd5b5f613eb98261367e565b9150613ec48361367e565b925082613ed457613ed3613e82565b5b828204905092915050565b5f613ee98261367e565b9150613ef48361367e565b9250828203905081811115613f0c57613f0b613ab9565b5b92915050565b7f7769746864726177616c000000000000000000000000000000000000000000005f82015250565b5f613f46600a836136b9565b9150613f5182613f12565b602082019050919050565b5f604082019050613f6f5f830184613687565b8181036020830152613f8081613f3a565b905092915050565b7f5969656c645661756c743a2043616e6e6f742072656465656d203000000000005f82015250565b5f613fbc601b836136b9565b9150613fc782613f88565b602082019050919050565b5f6020820190508181035f830152613fe981613fb0565b9050919050565b5f81519050613ffe816137c8565b92915050565b61400d81613830565b8114614017575f5ffd5b50565b5f8151905061402881614004565b92915050565b5f5f5f606084860312156140455761404461373f565b5b5f61405286828701613ff0565b935050602061406386828701613a7a565b92505060406140748682870161401a565b9150509250925092565b7f5969656c645661756c743a20496e76616c696420726563697069656e740000005f82015250565b5f6140b2601d836136b9565b91506140bd8261407e565b602082019050919050565b5f6020820190508181035f8301526140df816140a6565b9050919050565b5f8160011c9050919050565b5f5f8291508390505b600185111561413b5780860481111561411757614116613ab9565b5b60018516156141265780820291505b8081029050614134856140e6565b94506140fb565b94509492505050565b5f82614153576001905061420e565b81614160575f905061420e565b81600181146141765760028114614180576141af565b600191505061420e565b60ff84111561419257614191613ab9565b5b8360020a9150848211156141a9576141a8613ab9565b5b5061420e565b5060208310610133831016604e8410600b84101617156141e45782820a9050838111156141df576141de613ab9565b5b61420e565b6141f184848460016140f2565b9250905081840481111561420857614207613ab9565b5b81810290505b9392505050565b5f61421f8261367e565b915061422a836138b3565b92506142577fffffffffffffffffffffffffffffffffffffffffffffffffffffffffffffffff8484614144565b905092915050565b5f6060820190506142725f8301866138e7565b61427f6020830185613687565b61428c6040830184613687565b949350505050565b5f6040820190506142a75f8301856138e7565b6142b46020830184613687565b9392505050565b5f602082840312156142d0576142cf61373f565b5b5f6142dd8482850161401a565b91505092915050565b5f6040820190506142f95f830185613687565b61430660208301846138e7565b9392505050565b7f706572666f726d616e63650000000000000000000000000000000000000000005f82015250565b5f614341600b836136b9565b915061434c8261430d565b602082019050919050565b5f60408201905061436a5f830184613687565b818103602083015261437b81614335565b905092915050565b5f6060820190506143965f830186613687565b6143a360208301856138e7565b6143b060408301846138e7565b949350505050565b5f6143c28261367e565b91507fffffffffffffffffffffffffffffffffffffffffffffffffffffffffffffffff82036143f4576143f3613ab9565b5b600182019050919050565b7f5969656c645661756c743a20496e73756666696369656e74206c6971756964695f8201527f7479000000000000000000000000000000000000000000000000000000000000602082015250565b5f6144596022836136b9565b9150614464826143ff565b604082019050919050565b5f6020820190508181035f8301526144868161444d565b9050919050565b7f4e487b71000000000000000000000000000000000000000000000000000000005f52602160045260245ffd5b5f6144c4826138b3565b91506144cf836138b3565b9250826144df576144de613e82565b5b828206905092915050565b5f6060820190506144fd5f8301866138e7565b61450a60208301856138e7565b6145176040830184613687565b94935050505056fea2646970667358221220035693f7d8c3fe8e0d970b633b9840140eb1c5ae21061148a1abe6cbbe807caa64736f6c634300081e0033","linkReferences":{}},"methodIdentifiers":{"allowance(address,address)":"dd62ed3e","approve(address,uint256)":"095ea7b3","asset()":"38d52e0f","balanceOf(address)":"70a08231","convertToAssets(uint256)":"07a2d13a","convertToShares(uint256)":"c6e6f592","decimals()":"313ce567","deposit(uint256,address)":"6e553f65","emergencyWithdrawAll()":"dd191719","feeRecipient()":"46904840","harvestAll()":"8ed955b9","lastRebalance()":"106b9ca1","maxDeposit(address)":"402d267d","maxMint(address)":"c63d75b6","maxRedeem(address)":"d905777e","maxWithdraw(address)":"ce96cb77","mint(uint256,address)":"94bf804d","name()":"06fdde03","owner()":"8da5cb5b","pause()":"8456cb59","paused()":"5c975abb","performanceFee()":"87788782","previewDeposit(uint256)":"ef8b30f7","previewMint(uint256)":"b3d7f6b9","previewRedeem(uint256)":"4cdad506","previewWithdraw(uint256)":"0a28a477","rebalance()":"7d7c2a1c","rebalanceInterval()":"16d1d916","redeem(uint256,address,address)":"ba087652","renounceOwnership()":"715018a6","setFeeRecipient(address)":"e74b981b","setPerformanceFee(uint256)":"70897b23","setRebalanceInterval(uint256)":"5b7dcaed","setWithdrawalFee(uint256)":"ac1e5025","strategyManager()":"39b70e38","symbol()":"95d89b41","totalAssets()":"01e1d114","totalDeposited()":"ff50abdc","totalSupply()":"18160ddd","totalWithdrawn()":"4b319713","transfer(address,uint256)":"a9059cbb","transferFrom(address,address,uint256)":"23b872dd","transferOwnership(address)":"f2fde38b","unpause()":"3f4ba83a","withdraw(uint256,address,address)":"b460af94","withdrawalFee()":"8bc7e8c4"},"id":35}