{"abi":[{"type":"constructor","inputs":[{"name":"_vUSDT","type":"address","internalType":"address"}],"stateMutability":"nonpayable"},{"type":"function","name":"deposit","inputs":[{"name":"_amount","type":"uint256","internalType":"uint256"}],"outputs":[],"stateMutability":"nonpayable"},{"type":"function","name":"getBalance","inputs":[{"name":"_user","type":"address","internalType":"address"}],"outputs":[{"name":"","type":"tuple","internalType":"struct Vault.UserData","components":[{"name":"lockedBalance","type":"uint256","internalType":"uint256"},{"name":"availableBalance","type":"uint256","internalType":"uint256"}]}],"stateMutability":"view"},{"type":"function","name":"lockCollateral","inputs":[{"name":"_user","type":"address","internalType":"address"},{"name":"_amount","type":"uint256","internalType":"uint256"}],"outputs":[],"stateMutability":"nonpayable"},{"type":"function","name":"owner","inputs":[],"outputs":[{"name":"","type":"address","internalType":"address"}],"stateMutability":"view"},{"type":"function","name":"renounceOwnership","inputs":[],"outputs":[],"stateMutability":"nonpayable"},{"type":"function","name":"transferOwnership","inputs":[{"name":"newOwner","type":"address","internalType":"address"}],"outputs":[],"stateMutability":"nonpayable"},{"type":"function","name":"unlockCollateral","inputs":[{"name":"_user","type":"address","internalType":"address"},{"name":"_amount","type":"uint256","internalType":"uint256"}],"outputs":[],"stateMutability":"nonpayable"},{"type":"function","name":"userData","inputs":[{"name":"","type":"address","internalType":"address"}],"outputs":[{"name":"lockedBalance","type":"uint256","internalType":"uint256"},{"name":"availableBalance","type":"uint256","internalType":"uint256"}],"stateMutability":"view"},{"type":"function","name":"vUSDT","inputs":[],"outputs":[{"name":"","type":"address","internalType":"contract IERC20"}],"stateMutability":"view"},{"type":"function","name":"withdraw","inputs":[{"name":"_amount","type":"uint256","internalType":"uint256"}],"outputs":[],"stateMutability":"nonpayable"},{"type":"event","name":"CollateralLocked","inputs":[{"name":"user","type":"address","indexed":true,"internalType":"address"},{"name":"amount","type":"uint256","indexed":false,"internalType":"uint256"}],"anonymous":false},{"type":"event","name":"CollateralUnlocked","inputs":[{"name":"user","type":"address","indexed":true,"internalType":"address"},{"name":"amount","type":"uint256","indexed":false,"internalType":"uint256"}],"anonymous":false},{"type":"event","name":"Deposited","inputs":[{"name":"user","type":"address","indexed":true,"internalType":"address"},{"name":"amount","type":"uint256","indexed":false,"internalType":"uint256"}],"anonymous":false},{"type":"event","name":"OwnershipTransferred","inputs":[{"name":"previousOwner","type":"address","indexed":true,"internalType":"address"},{"name":"newOwner","type":"address","indexed":true,"internalType":"address"}],"anonymous":false},{"type":"event","name":"Withdrawn","inputs":[{"name":"user","type":"address","indexed":true,"internalType":"address"},{"name":"amount","type":"uint256","indexed":false,"internalType":"uint256"}],"anonymous":false},{"type":"error","name":"OwnableInvalidOwner","inputs":[{"name":"owner","type":"address","internalType":"address"}]},{"type":"error","name":"OwnableUnauthorizedAccount","inputs":[{"name":"account","type":"address","internalType":"address"}]},{"type":"error","name":"ReentrancyGuardReentrantCall","inputs":[]}],"bytecode":{"object":"0x60a060405234801561000f575f5ffd5b5060405161181e38038061181e83398181016040528101906100319190610280565b335f73ffffffffffffffffffffffffffffffffffffffff168173ffffffffffffffffffffffffffffffffffffffff16036100a2575f6040517f1e4fbdf700000000000000000000000000000000000000000000000000000000815260040161009991906102ba565b60405180910390fd5b6100b18161016160201b60201c565b50600180819055505f73ffffffffffffffffffffffffffffffffffffffff168173ffffffffffffffffffffffffffffffffffffffff1603610127576040517f08c379a000000000000000000000000000000000000000000000000000000000815260040161011e9061032d565b60405180910390fd5b8073ffffffffffffffffffffffffffffffffffffffff1660808173ffffffffffffffffffffffffffffffffffffffff16815250505061034b565b5f5f5f9054906101000a900473ffffffffffffffffffffffffffffffffffffffff169050815f5f6101000a81548173ffffffffffffffffffffffffffffffffffffffff021916908373ffffffffffffffffffffffffffffffffffffffff1602179055508173ffffffffffffffffffffffffffffffffffffffff168173ffffffffffffffffffffffffffffffffffffffff167f8be0079c531659141344cd1fd0a4f28419497f9722a3daafe3b4186f6b6457e060405160405180910390a35050565b5f5ffd5b5f73ffffffffffffffffffffffffffffffffffffffff82169050919050565b5f61024f82610226565b9050919050565b61025f81610245565b8114610269575f5ffd5b50565b5f8151905061027a81610256565b92915050565b5f6020828403121561029557610294610222565b5b5f6102a28482850161026c565b91505092915050565b6102b481610245565b82525050565b5f6020820190506102cd5f8301846102ab565b92915050565b5f82825260208201905092915050565b7f496e76616c696420746f6b656e000000000000000000000000000000000000005f82015250565b5f610317600d836102d3565b9150610322826102e3565b602082019050919050565b5f6020820190508181035f8301526103448161030b565b9050919050565b6080516114a66103785f395f8181610481015281816107b10152818161082001526108fb01526114a65ff3fe608060405234801561000f575f5ffd5b506004361061009c575f3560e01c8063a879ebeb11610064578063a879ebeb1461011c578063b6b55f251461013a578063c891091314610156578063f2fde38b14610187578063f8b2cb4f146101a35761009c565b806317f17498146100a05780632e1a7d4d146100bc57806347a7d107146100d8578063715018a6146100f45780638da5cb5b146100fe575b5f5ffd5b6100ba60048036038101906100b59190610dd9565b6101d3565b005b6100d660048036038101906100d19190610e17565b610394565b005b6100f260048036038101906100ed9190610dd9565b6105b3565b005b6100fc610775565b005b610106610788565b6040516101139190610e51565b60405180910390f35b6101246107af565b6040516101319190610ec5565b60405180910390f35b610154600480360381019061014f9190610e17565b6107d3565b005b610170600480360381019061016b9190610ede565b610a84565b60405161017e929190610f18565b60405180910390f35b6101a1600480360381019061019c9190610ede565b610aa4565b005b6101bd60048036038101906101b89190610ede565b610b28565b6040516101ca9190610f7b565b60405180910390f35b5f8111610215576040517f08c379a000000000000000000000000000000000000000000000000000000000815260040161020c90610fee565b60405180910390fd5b8060025f8473ffffffffffffffffffffffffffffffffffffffff1673ffffffffffffffffffffffffffffffffffffffff1681526020019081526020015f205f01541015610297576040517f08c379a000000000000000000000000000000000000000000000000000000000815260040161028e9061107c565b60405180910390fd5b8060025f8473ffffffffffffffffffffffffffffffffffffffff1673ffffffffffffffffffffffffffffffffffffffff1681526020019081526020015f205f015f8282546102e591906110c7565b925050819055508060025f8473ffffffffffffffffffffffffffffffffffffffff1673ffffffffffffffffffffffffffffffffffffffff1681526020019081526020015f206001015f82825461033b91906110fa565b925050819055508173ffffffffffffffffffffffffffffffffffffffff167fb4eaf47ecd4bc76248f192433e8067c96cb3e17aced42fbc47a512742fb7421682604051610388919061112d565b60405180910390a25050565b61039c610b92565b5f81116103de576040517f08c379a00000000000000000000000000000000000000000000000000000000081526004016103d590611190565b60405180910390fd5b5f60025f3373ffffffffffffffffffffffffffffffffffffffff1673ffffffffffffffffffffffffffffffffffffffff1681526020019081526020015f2090508181600101541015610465576040517f08c379a000000000000000000000000000000000000000000000000000000000815260040161045c906111f8565b60405180910390fd5b81816001015f82825461047891906110c7565b925050819055507f000000000000000000000000000000000000000000000000000000000000000073ffffffffffffffffffffffffffffffffffffffff1663a9059cbb33846040518363ffffffff1660e01b81526004016104da929190611216565b6020604051808303815f875af11580156104f6573d5f5f3e3d5ffd5b505050506040513d601f19601f8201168201806040525081019061051a9190611272565b610559576040517f08c379a0000000000000000000000000000000000000000000000000000000008152600401610550906112e7565b60405180910390fd5b3373ffffffffffffffffffffffffffffffffffffffff167f7084f5476618d8e60b11ef0d7d3f06914655adb8793e28ff7f018d4c76d505d58360405161059f919061112d565b60405180910390a2506105b0610bd8565b50565b5f81116105f5576040517f08c379a00000000000000000000000000000000000000000000000000000000081526004016105ec90610fee565b60405180910390fd5b8060025f8473ffffffffffffffffffffffffffffffffffffffff1673ffffffffffffffffffffffffffffffffffffffff1681526020019081526020015f20600101541015610678576040517f08c379a000000000000000000000000000000000000000000000000000000000815260040161066f9061134f565b60405180910390fd5b8060025f8473ffffffffffffffffffffffffffffffffffffffff1673ffffffffffffffffffffffffffffffffffffffff1681526020019081526020015f206001015f8282546106c791906110c7565b925050819055508060025f8473ffffffffffffffffffffffffffffffffffffffff1673ffffffffffffffffffffffffffffffffffffffff1681526020019081526020015f205f015f82825461071c91906110fa565b925050819055508173ffffffffffffffffffffffffffffffffffffffff167f2251f6a4ed7fe619e9e8ce557d05a63dd484284f9c95c9ab334f6a7707cd080082604051610769919061112d565b60405180910390a25050565b61077d610be1565b6107865f610c68565b565b5f5f5f9054906101000a900473ffffffffffffffffffffffffffffffffffffffff16905090565b7f000000000000000000000000000000000000000000000000000000000000000081565b6107db610b92565b5f811161081d576040517f08c379a000000000000000000000000000000000000000000000000000000000815260040161081490611190565b60405180910390fd5b807f000000000000000000000000000000000000000000000000000000000000000073ffffffffffffffffffffffffffffffffffffffff1663dd62ed3e33306040518363ffffffff1660e01b815260040161087992919061136d565b602060405180830381865afa158015610894573d5f5f3e3d5ffd5b505050506040513d601f19601f820116820180604052508101906108b891906113a8565b10156108f9576040517f08c379a00000000000000000000000000000000000000000000000000000000081526004016108f09061141d565b60405180910390fd5b7f000000000000000000000000000000000000000000000000000000000000000073ffffffffffffffffffffffffffffffffffffffff166323b872dd3330846040518463ffffffff1660e01b81526004016109569392919061143b565b6020604051808303815f875af1158015610972573d5f5f3e3d5ffd5b505050506040513d601f19601f820116820180604052508101906109969190611272565b6109d5576040517f08c379a00000000000000000000000000000000000000000000000000000000081526004016109cc906112e7565b60405180910390fd5b8060025f3373ffffffffffffffffffffffffffffffffffffffff1673ffffffffffffffffffffffffffffffffffffffff1681526020019081526020015f206001015f828254610a2491906110fa565b925050819055503373ffffffffffffffffffffffffffffffffffffffff167f2da466a7b24304f47e87fa2e1e5a81b9831ce54fec19055ce277ca2f39ba42c482604051610a71919061112d565b60405180910390a2610a81610bd8565b50565b6002602052805f5260405f205f91509050805f0154908060010154905082565b610aac610be1565b5f73ffffffffffffffffffffffffffffffffffffffff168173ffffffffffffffffffffffffffffffffffffffff1603610b1c575f6040517f1e4fbdf7000000000000000000000000000000000000000000000000000000008152600401610b139190610e51565b60405180910390fd5b610b2581610c68565b50565b610b30610d30565b60025f8373ffffffffffffffffffffffffffffffffffffffff1673ffffffffffffffffffffffffffffffffffffffff1681526020019081526020015f206040518060400160405290815f82015481526020016001820154815250509050919050565b600260015403610bce576040517f3ee5aeb500000000000000000000000000000000000000000000000000000000815260040160405180910390fd5b6002600181905550565b60018081905550565b610be9610d29565b73ffffffffffffffffffffffffffffffffffffffff16610c07610788565b73ffffffffffffffffffffffffffffffffffffffff1614610c6657610c2a610d29565b6040517f118cdaa7000000000000000000000000000000000000000000000000000000008152600401610c5d9190610e51565b60405180910390fd5b565b5f5f5f9054906101000a900473ffffffffffffffffffffffffffffffffffffffff169050815f5f6101000a81548173ffffffffffffffffffffffffffffffffffffffff021916908373ffffffffffffffffffffffffffffffffffffffff1602179055508173ffffffffffffffffffffffffffffffffffffffff168173ffffffffffffffffffffffffffffffffffffffff167f8be0079c531659141344cd1fd0a4f28419497f9722a3daafe3b4186f6b6457e060405160405180910390a35050565b5f33905090565b60405180604001604052805f81526020015f81525090565b5f5ffd5b5f73ffffffffffffffffffffffffffffffffffffffff82169050919050565b5f610d7582610d4c565b9050919050565b610d8581610d6b565b8114610d8f575f5ffd5b50565b5f81359050610da081610d7c565b92915050565b5f819050919050565b610db881610da6565b8114610dc2575f5ffd5b50565b5f81359050610dd381610daf565b92915050565b5f5f60408385031215610def57610dee610d48565b5b5f610dfc85828601610d92565b9250506020610e0d85828601610dc5565b9150509250929050565b5f60208284031215610e2c57610e2b610d48565b5b5f610e3984828501610dc5565b91505092915050565b610e4b81610d6b565b82525050565b5f602082019050610e645f830184610e42565b92915050565b5f819050919050565b5f610e8d610e88610e8384610d4c565b610e6a565b610d4c565b9050919050565b5f610e9e82610e73565b9050919050565b5f610eaf82610e94565b9050919050565b610ebf81610ea5565b82525050565b5f602082019050610ed85f830184610eb6565b92915050565b5f60208284031215610ef357610ef2610d48565b5b5f610f0084828501610d92565b91505092915050565b610f1281610da6565b82525050565b5f604082019050610f2b5f830185610f09565b610f386020830184610f09565b9392505050565b610f4881610da6565b82525050565b604082015f820151610f625f850182610f3f565b506020820151610f756020850182610f3f565b50505050565b5f604082019050610f8e5f830184610f4e565b92915050565b5f82825260208201905092915050565b7f416d6f756e742073686f756c642062652067726561746572207468616e2030005f82015250565b5f610fd8601f83610f94565b9150610fe382610fa4565b602082019050919050565b5f6020820190508181035f83015261100581610fcc565b9050919050565b7f496e73756666696369656e74206c6f636b65642062616c616e636520746f20755f8201527f6e6c6f636b000000000000000000000000000000000000000000000000000000602082015250565b5f611066602583610f94565b91506110718261100c565b604082019050919050565b5f6020820190508181035f8301526110938161105a565b9050919050565b7f4e487b71000000000000000000000000000000000000000000000000000000005f52601160045260245ffd5b5f6110d182610da6565b91506110dc83610da6565b92508282039050818111156110f4576110f361109a565b5b92915050565b5f61110482610da6565b915061110f83610da6565b92508282019050808211156111275761112661109a565b5b92915050565b5f6020820190506111405f830184610f09565b92915050565b7f5a65726f20616d6f756e740000000000000000000000000000000000000000005f82015250565b5f61117a600b83610f94565b915061118582611146565b602082019050919050565b5f6020820190508181035f8301526111a78161116e565b9050919050565b7f496e73756666696369656e742062616c616e63650000000000000000000000005f82015250565b5f6111e2601483610f94565b91506111ed826111ae565b602082019050919050565b5f6020820190508181035f83015261120f816111d6565b9050919050565b5f6040820190506112295f830185610e42565b6112366020830184610f09565b9392505050565b5f8115159050919050565b6112518161123d565b811461125b575f5ffd5b50565b5f8151905061126c81611248565b92915050565b5f6020828403121561128757611286610d48565b5b5f6112948482850161125e565b91505092915050565b7f5472616e73666572206661696c656400000000000000000000000000000000005f82015250565b5f6112d1600f83610f94565b91506112dc8261129d565b602082019050919050565b5f6020820190508181035f8301526112fe816112c5565b9050919050565b7f496e73756666696369656e7420617661696c61626c652062616c616e636500005f82015250565b5f611339601e83610f94565b915061134482611305565b602082019050919050565b5f6020820190508181035f8301526113668161132d565b9050919050565b5f6040820190506113805f830185610e42565b61138d6020830184610e42565b9392505050565b5f815190506113a281610daf565b92915050565b5f602082840312156113bd576113bc610d48565b5b5f6113ca84828501611394565b91505092915050565b7f416c6c6f77616e636520746f6f206c6f770000000000000000000000000000005f82015250565b5f611407601183610f94565b9150611412826113d3565b602082019050919050565b5f6020820190508181035f830152611434816113fb565b9050919050565b5f60608201905061144e5f830186610e42565b61145b6020830185610e42565b6114686040830184610f09565b94935050505056fea26469706673582212201bff837d4b340a6a833c27d099213b9615cebd9005aeb734c242718cbe0a24b364736f6c634300081e0033","linkReferences":{}},"methodIdentifiers":{"deposit(uint256)":"b6b55f25","getBalance(address)":"f8b2cb4f","lockCollateral(address,uint256)":"47a7d107","owner()":"8da5cb5b","renounceOwnership()":"715018a6","transferOwnership(address)":"f2fde38b","unlockCollateral(address,uint256)":"17f17498","userData(address)":"c8910913","vUSDT()":"a879ebeb","withdraw(uint256)":"2e1a7d4d"},"id":23}