{"abi":[{"type":"constructor","inputs":[],"stateMutability":"nonpayable"},{"type":"function","name":"addStrategy","inputs":[{"name":"_strategy","type":"address","internalType":"address"},{"name":"_allocation","type":"uint256","internalType":"uint256"}],"outputs":[],"stateMutability":"nonpayable"},{"type":"function","name":"getActiveStrategies","inputs":[],"outputs":[{"name":"","type":"tuple[]","internalType":"struct StrategyManager.StrategyInfo[]","components":[{"name":"strategy","type":"address","internalType":"address"},{"name":"allocation","type":"uint256","internalType":"uint256"},{"name":"active","type":"bool","internalType":"bool"}]}],"stateMutability":"view"},{"type":"function","name":"getStrategy","inputs":[{"name":"index","type":"uint256","internalType":"uint256"}],"outputs":[{"name":"strategy","type":"address","internalType":"address"},{"name":"allocation","type":"uint256","internalType":"uint256"},{"name":"active","type":"bool","internalType":"bool"}],"stateMutability":"view"},{"type":"function","name":"getStrategyCount","inputs":[],"outputs":[{"name":"","type":"uint256","internalType":"uint256"}],"stateMutability":"view"},{"type":"function","name":"getTotalAllocation","inputs":[],"outputs":[{"name":"","type":"uint256","internalType":"uint256"}],"stateMutability":"view"},{"type":"function","name":"owner","inputs":[],"outputs":[{"name":"","type":"address","internalType":"address"}],"stateMutability":"view"},{"type":"function","name":"removeStrategy","inputs":[{"name":"index","type":"uint256","internalType":"uint256"}],"outputs":[],"stateMutability":"nonpayable"},{"type":"function","name":"renounceOwnership","inputs":[],"outputs":[],"stateMutability":"nonpayable"},{"type":"function","name":"setVault","inputs":[{"name":"_vault","type":"address","internalType":"address"}],"outputs":[],"stateMutability":"nonpayable"},{"type":"function","name":"strategies","inputs":[{"name":"","type":"uint256","internalType":"uint256"}],"outputs":[{"name":"strategy","type":"address","internalType":"address"},{"name":"allocation","type":"uint256","internalType":"uint256"},{"name":"active","type":"bool","internalType":"bool"}],"stateMutability":"view"},{"type":"function","name":"transferOwnership","inputs":[{"name":"newOwner","type":"address","internalType":"address"}],"outputs":[],"stateMutability":"nonpayable"},{"type":"function","name":"updateAllocation","inputs":[{"name":"index","type":"uint256","internalType":"uint256"},{"name":"newAllocation","type":"uint256","internalType":"uint256"}],"outputs":[],"stateMutability":"nonpayable"},{"type":"function","name":"vault","inputs":[],"outputs":[{"name":"","type":"address","internalType":"address"}],"stateMutability":"view"},{"type":"event","name":"AllocationUpdated","inputs":[{"name":"index","type":"uint256","indexed":true,"internalType":"uint256"},{"name":"newAllocation","type":"uint256","indexed":false,"internalType":"uint256"}],"anonymous":false},{"type":"event","name":"OwnershipTransferred","inputs":[{"name":"previousOwner","type":"address","indexed":true,"internalType":"address"},{"name":"newOwner","type":"address","indexed":true,"internalType":"address"}],"anonymous":false},{"type":"event","name":"StrategyAdded","inputs":[{"name":"strategy","type":"address","indexed":true,"internalType":"address"},{"name":"allocation","type":"uint256","indexed":false,"internalType":"uint256"}],"anonymous":false},{"type":"event","name":"StrategyRemoved","inputs":[{"name":"strategy","type":"address","indexed":true,"internalType":"address"},{"name":"index","type":"uint256","indexed":false,"internalType":"uint256"}],"anonymous":false},{"type":"event","name":"StrategyUpdated","inputs":[{"name":"strategy","type":"address","indexed":true,"internalType":"address"},{"name":"newAllocation","type":"uint256","indexed":false,"internalType":"uint256"}],"anonymous":false},{"type":"event","name":"VaultSet","inputs":[{"name":"vault","type":"address","indexed":true,"internalType":"address"}],"anonymous":false},{"type":"error","name":"OwnableInvalidOwner","inputs":[{"name":"owner","type":"address","internalType":"address"}]},{"type":"error","name":"OwnableUnauthorizedAccount","inputs":[{"name":"account","type":"address","internalType":"address"}]}],"bytecode":{"object":"0x608060405234801561000f575f5ffd5b50335f73ffffffffffffffffffffffffffffffffffffffff168173ffffffffffffffffffffffffffffffffffffffff1603610081575f6040517f1e4fbdf70000000000000000000000000000000000000000000000000000000081526004016100789190610196565b60405180910390fd5b6100908161009660201b60201c565b506101af565b5f5f5f9054906101000a900473ffffffffffffffffffffffffffffffffffffffff169050815f5f6101000a81548173ffffffffffffffffffffffffffffffffffffffff021916908373ffffffffffffffffffffffffffffffffffffffff1602179055508173ffffffffffffffffffffffffffffffffffffffff168173ffffffffffffffffffffffffffffffffffffffff167f8be0079c531659141344cd1fd0a4f28419497f9722a3daafe3b4186f6b6457e060405160405180910390a35050565b5f73ffffffffffffffffffffffffffffffffffffffff82169050919050565b5f61018082610157565b9050919050565b61019081610176565b82525050565b5f6020820190506101a95f830184610187565b92915050565b61180d806101bc5f395ff3fe608060405234801561000f575f5ffd5b50600436106100cd575f3560e01c80638da5cb5b1161008a578063cfc0cc3411610064578063cfc0cc34146101c3578063d574ea3d146101f5578063f2fde38b14610227578063fbfa77cf14610243576100cd565b80638da5cb5b1461016d578063c0cbbca61461018b578063c9411e22146101a7576100cd565b806315d3b5d8146100d157806324fb413c146100ef57806331e19cfa1461010b578063587436e4146101295780636817031b14610147578063715018a614610163575b5f5ffd5b6100d9610261565b6040516100e6919061109f565b60405180910390f35b610109600480360381019061010491906110e6565b6102f4565b005b6101136105c7565b604051610120919061109f565b60405180910390f35b6101316105d3565b60405161013e9190611274565b60405180910390f35b610161600480360381019061015c91906112be565b6107c6565b005b61016b6108c2565b005b6101756108d5565b60405161018291906112f8565b60405180910390f35b6101a560048036038101906101a09190611311565b6108fc565b005b6101c160048036038101906101bc919061133c565b610a44565b005b6101dd60048036038101906101d89190611311565b610ced565b6040516101ec93929190611389565b60405180910390f35b61020f600480360381019061020a9190611311565b610df9565b60405161021e93929190611389565b60405180910390f35b610241600480360381019061023c91906112be565b610e59565b005b61024b610edd565b60405161025891906112f8565b60405180910390f35b5f5f5f90505f5f90505b6001805490508110156102ec576001818154811061028c5761028b6113be565b5b905f5260205f2090600302016002015f9054906101000a900460ff16156102df57600181815481106102c1576102c06113be565b5b905f5260205f20906003020160010154826102dc9190611418565b91505b808060010191505061026b565b508091505090565b6102fc610f02565b6001805490508210610343576040517f08c379a000000000000000000000000000000000000000000000000000000000815260040161033a906114a5565b60405180910390fd5b612710811115610388576040517f08c379a000000000000000000000000000000000000000000000000000000000815260040161037f90611533565b60405180910390fd5b6001828154811061039c5761039b6113be565b5b905f5260205f2090600302016002015f9054906101000a900460ff166103f7576040517f08c379a00000000000000000000000000000000000000000000000000000000081526004016103ee906115c1565b60405180910390fd5b5f8190505f5f90505b60018054905081101561048d5783811415801561044957506001818154811061042c5761042b6113be565b5b905f5260205f2090600302016002015f9054906101000a900460ff165b156104805760018181548110610462576104616113be565b5b905f5260205f209060030201600101548261047d9190611418565b91505b8080600101915050610400565b506127108111156104d3576040517f08c379a00000000000000000000000000000000000000000000000000000000081526004016104ca9061164f565b60405180910390fd5b81600184815481106104e8576104e76113be565b5b905f5260205f20906003020160010181905550827fce82be03214ce62b009134c93a9904189f1e9d5a50786485daa1304660a881bb8360405161052b919061109f565b60405180910390a260018381548110610547576105466113be565b5b905f5260205f2090600302015f015f9054906101000a900473ffffffffffffffffffffffffffffffffffffffff1673ffffffffffffffffffffffffffffffffffffffff167fe2d9b7f1e07c794d9c19cb81343399f288c6d5a7ba85b73669b438836de8c2e3836040516105ba919061109f565b60405180910390a2505050565b5f600180549050905090565b60605f5f90505f5f90505b60018054905081101561063c57600181815481106105ff576105fe6113be565b5b905f5260205f2090600302016002015f9054906101000a900460ff161561062f57818061062b9061166d565b9250505b80806001019150506105de565b505f8167ffffffffffffffff811115610658576106576116b4565b5b60405190808252806020026020018201604052801561069157816020015b61067e611051565b8152602001906001900390816106765790505b5090505f5f90505f5f90505b6001805490508110156107bc57600181815481106106be576106bd6113be565b5b905f5260205f2090600302016002015f9054906101000a900460ff16156107af57600181815481106106f3576106f26113be565b5b905f5260205f2090600302016040518060600160405290815f82015f9054906101000a900473ffffffffffffffffffffffffffffffffffffffff1673ffffffffffffffffffffffffffffffffffffffff1673ffffffffffffffffffffffffffffffffffffffff16815260200160018201548152602001600282015f9054906101000a900460ff161515151581525050838381518110610795576107946113be565b5b602002602001018190525081806107ab9061166d565b9250505b808060010191505061069d565b5081935050505090565b6107ce610f02565b5f73ffffffffffffffffffffffffffffffffffffffff168173ffffffffffffffffffffffffffffffffffffffff160361083c576040517f08c379a00000000000000000000000000000000000000000000000000000000081526004016108339061172b565b60405180910390fd5b8060025f6101000a81548173ffffffffffffffffffffffffffffffffffffffff021916908373ffffffffffffffffffffffffffffffffffffffff1602179055508073ffffffffffffffffffffffffffffffffffffffff167fe7ae49f883c825b05681b3e00e8be6fdea9ed2a8a45e4c6ecb9390fc44cce61560405160405180910390a250565b6108ca610f02565b6108d35f610f89565b565b5f5f5f9054906101000a900473ffffffffffffffffffffffffffffffffffffffff16905090565b610904610f02565b600180549050811061094b576040517f08c379a0000000000000000000000000000000000000000000000000000000008152600401610942906114a5565b60405180910390fd5b5f600182815481106109605761095f6113be565b5b905f5260205f2090600302015f015f9054906101000a900473ffffffffffffffffffffffffffffffffffffffff1690505f600183815481106109a5576109a46113be565b5b905f5260205f2090600302016002015f6101000a81548160ff0219169083151502179055505f600183815481106109df576109de6113be565b5b905f5260205f209060030201600101819055508073ffffffffffffffffffffffffffffffffffffffff167fbbf656fe5bdad4acb6ad855a12c9cb30a54f2171f421df7461c587557e916b3a83604051610a38919061109f565b60405180910390a25050565b610a4c610f02565b5f73ffffffffffffffffffffffffffffffffffffffff168273ffffffffffffffffffffffffffffffffffffffff1603610aba576040517f08c379a0000000000000000000000000000000000000000000000000000000008152600401610ab1906117b9565b60405180910390fd5b612710811115610aff576040517f08c379a0000000000000000000000000000000000000000000000000000000008152600401610af690611533565b60405180910390fd5b5f8190505f5f90505b600180549050811015610b895760018181548110610b2957610b286113be565b5b905f5260205f2090600302016002015f9054906101000a900460ff1615610b7c5760018181548110610b5e57610b5d6113be565b5b905f5260205f2090600302016001015482610b799190611418565b91505b8080600101915050610b08565b50612710811115610bcf576040517f08c379a0000000000000000000000000000000000000000000000000000000008152600401610bc69061164f565b60405180910390fd5b600160405180606001604052808573ffffffffffffffffffffffffffffffffffffffff16815260200184815260200160011515815250908060018154018082558091505060019003905f5260205f2090600302015f909190919091505f820151815f015f6101000a81548173ffffffffffffffffffffffffffffffffffffffff021916908373ffffffffffffffffffffffffffffffffffffffff160217905550602082015181600101556040820151816002015f6101000a81548160ff02191690831515021790555050508273ffffffffffffffffffffffffffffffffffffffff167f2f564a83158ad1831793ad3e69257b52f39ece5d49cb0d8746708ecb9ef964da83604051610ce0919061109f565b60405180910390a2505050565b5f5f5f6001805490508410610d37576040517f08c379a0000000000000000000000000000000000000000000000000000000008152600401610d2e906114a5565b60405180910390fd5b5f60018581548110610d4c57610d4b6113be565b5b905f5260205f2090600302016040518060600160405290815f82015f9054906101000a900473ffffffffffffffffffffffffffffffffffffffff1673ffffffffffffffffffffffffffffffffffffffff1673ffffffffffffffffffffffffffffffffffffffff16815260200160018201548152602001600282015f9054906101000a900460ff1615151515815250509050805f015181602001518260400151935093509350509193909250565b60018181548110610e08575f80fd5b905f5260205f2090600302015f91509050805f015f9054906101000a900473ffffffffffffffffffffffffffffffffffffffff1690806001015490806002015f9054906101000a900460ff16905083565b610e61610f02565b5f73ffffffffffffffffffffffffffffffffffffffff168173ffffffffffffffffffffffffffffffffffffffff1603610ed1575f6040517f1e4fbdf7000000000000000000000000000000000000000000000000000000008152600401610ec891906112f8565b60405180910390fd5b610eda81610f89565b50565b60025f9054906101000a900473ffffffffffffffffffffffffffffffffffffffff1681565b610f0a61104a565b73ffffffffffffffffffffffffffffffffffffffff16610f286108d5565b73ffffffffffffffffffffffffffffffffffffffff1614610f8757610f4b61104a565b6040517f118cdaa7000000000000000000000000000000000000000000000000000000008152600401610f7e91906112f8565b60405180910390fd5b565b5f5f5f9054906101000a900473ffffffffffffffffffffffffffffffffffffffff169050815f5f6101000a81548173ffffffffffffffffffffffffffffffffffffffff021916908373ffffffffffffffffffffffffffffffffffffffff1602179055508173ffffffffffffffffffffffffffffffffffffffff168173ffffffffffffffffffffffffffffffffffffffff167f8be0079c531659141344cd1fd0a4f28419497f9722a3daafe3b4186f6b6457e060405160405180910390a35050565b5f33905090565b60405180606001604052805f73ffffffffffffffffffffffffffffffffffffffff1681526020015f81526020015f151581525090565b5f819050919050565b61109981611087565b82525050565b5f6020820190506110b25f830184611090565b92915050565b5f5ffd5b6110c581611087565b81146110cf575f5ffd5b50565b5f813590506110e0816110bc565b92915050565b5f5f604083850312156110fc576110fb6110b8565b5b5f611109858286016110d2565b925050602061111a858286016110d2565b9150509250929050565b5f81519050919050565b5f82825260208201905092915050565b5f819050602082019050919050565b5f73ffffffffffffffffffffffffffffffffffffffff82169050919050565b5f6111768261114d565b9050919050565b6111868161116c565b82525050565b61119581611087565b82525050565b5f8115159050919050565b6111af8161119b565b82525050565b606082015f8201516111c95f85018261117d565b5060208201516111dc602085018261118c565b5060408201516111ef60408501826111a6565b50505050565b5f61120083836111b5565b60608301905092915050565b5f602082019050919050565b5f61122282611124565b61122c818561112e565b93506112378361113e565b805f5b8381101561126757815161124e88826111f5565b97506112598361120c565b92505060018101905061123a565b5085935050505092915050565b5f6020820190508181035f83015261128c8184611218565b905092915050565b61129d8161116c565b81146112a7575f5ffd5b50565b5f813590506112b881611294565b92915050565b5f602082840312156112d3576112d26110b8565b5b5f6112e0848285016112aa565b91505092915050565b6112f28161116c565b82525050565b5f60208201905061130b5f8301846112e9565b92915050565b5f60208284031215611326576113256110b8565b5b5f611333848285016110d2565b91505092915050565b5f5f60408385031215611352576113516110b8565b5b5f61135f858286016112aa565b9250506020611370858286016110d2565b9150509250929050565b6113838161119b565b82525050565b5f60608201905061139c5f8301866112e9565b6113a96020830185611090565b6113b6604083018461137a565b949350505050565b7f4e487b71000000000000000000000000000000000000000000000000000000005f52603260045260245ffd5b7f4e487b71000000000000000000000000000000000000000000000000000000005f52601160045260245ffd5b5f61142282611087565b915061142d83611087565b9250828201905080821115611445576114446113eb565b5b92915050565b5f82825260208201905092915050565b7f53747261746567794d616e616765723a20496e76616c696420696e64657800005f82015250565b5f61148f601e8361144b565b915061149a8261145b565b602082019050919050565b5f6020820190508181035f8301526114bc81611483565b9050919050565b7f53747261746567794d616e616765723a20416c6c6f636174696f6e20746f6f205f8201527f6869676800000000000000000000000000000000000000000000000000000000602082015250565b5f61151d60248361144b565b9150611528826114c3565b604082019050919050565b5f6020820190508181035f83015261154a81611511565b9050919050565b7f53747261746567794d616e616765723a205374726174656779206e6f742061635f8201527f7469766500000000000000000000000000000000000000000000000000000000602082015250565b5f6115ab60248361144b565b91506115b682611551565b604082019050919050565b5f6020820190508181035f8301526115d88161159f565b9050919050565b7f53747261746567794d616e616765723a20546f74616c20616c6c6f636174696f5f8201527f6e20657863656564732031303025000000000000000000000000000000000000602082015250565b5f611639602e8361144b565b9150611644826115df565b604082019050919050565b5f6020820190508181035f8301526116668161162d565b9050919050565b5f61167782611087565b91507fffffffffffffffffffffffffffffffffffffffffffffffffffffffffffffffff82036116a9576116a86113eb565b5b600182019050919050565b7f4e487b71000000000000000000000000000000000000000000000000000000005f52604160045260245ffd5b7f53747261746567794d616e616765723a20496e76616c6964207661756c7400005f82015250565b5f611715601e8361144b565b9150611720826116e1565b602082019050919050565b5f6020820190508181035f83015261174281611709565b9050919050565b7f53747261746567794d616e616765723a20496e76616c696420737472617465675f8201527f7900000000000000000000000000000000000000000000000000000000000000602082015250565b5f6117a360218361144b565b91506117ae82611749565b604082019050919050565b5f6020820190508181035f8301526117d081611797565b905091905056fea2646970667358221220ccb3382ab9d8429dffdae906ef32c944ccf9e4d93a02a6bf11985aab8e6a500b64736f6c634300081e0033","linkReferences":{}},"methodIdentifiers":{"addStrategy(address,uint256)":"c9411e22","getActiveStrategies()":"587436e4","getStrategy(uint256)":"cfc0cc34","getStrategyCount()":"31e19cfa","getTotalAllocation()":"15d3b5d8","owner()":"8da5cb5b","removeStrategy(uint256)":"c0cbbca6","renounceOwnership()":"715018a6","setVault(address)":"6817031b","strategies(uint256)":"d574ea3d","transferOwnership(address)":"f2fde38b","updateAllocation(uint256,uint256)":"24fb413c","vault()":"fbfa77cf"},"id":34}