{"abi":[{"type":"constructor","inputs":[{"name":"_vUSDT","type":"address","internalType":"address"}],"stateMutability":"nonpayable"},{"type":"function","name":"currentYield","inputs":[],"outputs":[{"name":"","type":"uint256","internalType":"uint256"}],"stateMutability":"view"},{"type":"function","name":"deposit","inputs":[{"name":"amount","type":"uint256","internalType":"uint256"}],"outputs":[],"stateMutability":"nonpayable"},{"type":"function","name":"lastUpdate","inputs":[],"outputs":[{"name":"","type":"uint256","internalType":"uint256"}],"stateMutability":"view"},{"type":"function","name":"totalDeposited","inputs":[],"outputs":[{"name":"","type":"uint256","internalType":"uint256"}],"stateMutability":"view"},{"type":"function","name":"vUSDT","inputs":[],"outputs":[{"name":"","type":"address","internalType":"contract IERC20"}],"stateMutability":"view"},{"type":"function","name":"withdrawAll","inputs":[{"name":"to","type":"address","internalType":"address"}],"outputs":[{"name":"totalOut","type":"uint256","internalType":"uint256"}],"stateMutability":"nonpayable"},{"type":"function","name":"yieldRate","inputs":[],"outputs":[{"name":"","type":"uint256","internalType":"uint256"}],"stateMutability":"view"}],"bytecode":{"object":"0x60a060405234801561000f575f5ffd5b50604051610bb9380380610bb983398181016040528101906100319190610146565b8073ffffffffffffffffffffffffffffffffffffffff1660808173ffffffffffffffffffffffffffffffffffffffff168152505061007361007960201b60201c565b506102d8565b61025860015461008991906101a7565b42106100e6575f60084244306040516020016100a79392919061023f565b604051602081830303815290604052805190602001205f1c6100c991906102a8565b90508060036100d891906101a7565b5f8190555042600181905550505b565b5f5ffd5b5f73ffffffffffffffffffffffffffffffffffffffff82169050919050565b5f610115826100ec565b9050919050565b6101258161010b565b811461012f575f5ffd5b50565b5f815190506101408161011c565b92915050565b5f6020828403121561015b5761015a6100e8565b5b5f61016884828501610132565b91505092915050565b5f819050919050565b7f4e487b71000000000000000000000000000000000000000000000000000000005f52601160045260245ffd5b5f6101b182610171565b91506101bc83610171565b92508282019050808211156101d4576101d361017a565b5b92915050565b5f819050919050565b6101f46101ef82610171565b6101da565b82525050565b5f8160601b9050919050565b5f610210826101fa565b9050919050565b5f61022182610206565b9050919050565b6102396102348261010b565b610217565b82525050565b5f61024a82866101e3565b60208201915061025a82856101e3565b60208201915061026a8284610228565b601482019150819050949350505050565b7f4e487b71000000000000000000000000000000000000000000000000000000005f52601260045260245ffd5b5f6102b282610171565b91506102bd83610171565b9250826102cd576102cc61027b565b5b828206905092915050565b6080516108bb6102fe5f395f8181610170015281816101de01526102db01526108bb5ff3fe608060405234801561000f575f5ffd5b506004361061007b575f3560e01c8063b6b55f2511610059578063b6b55f25146100d9578063c0463711146100f5578063fa09e63014610113578063ff50abdc146101435761007b565b80636999ac931461007f57806378a642f21461009d578063a879ebeb146100bb575b5f5ffd5b610087610161565b6040516100949190610408565b60405180910390f35b6100a5610166565b6040516100b29190610408565b60405180910390f35b6100c361016e565b6040516100d0919061049b565b60405180910390f35b6100f360048036038101906100ee91906104e2565b610192565b005b6100fd610295565b60405161010a9190610408565b60405180910390f35b61012d60048036038101906101289190610548565b61029b565b60405161013a9190610408565b60405180910390f35b61014b61037b565b6040516101589190610408565b60405180910390f35b5f5481565b5f5f54905090565b7f000000000000000000000000000000000000000000000000000000000000000081565b61019a610381565b5f81116101dc576040517f08c379a00000000000000000000000000000000000000000000000000000000081526004016101d3906105cd565b60405180910390fd5b7f000000000000000000000000000000000000000000000000000000000000000073ffffffffffffffffffffffffffffffffffffffff166323b872dd3330846040518463ffffffff1660e01b8152600401610239939291906105fa565b6020604051808303815f875af1158015610255573d5f5f3e3d5ffd5b505050506040513d601f19601f820116820180604052508101906102799190610664565b508060025f82825461028b91906106bc565b9250508190555050565b60015481565b5f6102a4610381565b5f60645f546002546102b691906106ef565b6102c0919061075d565b9050806002546102d091906106bc565b91505f6002819055507f000000000000000000000000000000000000000000000000000000000000000073ffffffffffffffffffffffffffffffffffffffff1663a9059cbb84846040518363ffffffff1660e01b815260040161033492919061078d565b6020604051808303815f875af1158015610350573d5f5f3e3d5ffd5b505050506040513d601f19601f820116820180604052508101906103749190610664565b5050919050565b60025481565b61025860015461039191906106bc565b42106103ee575f60084244306040516020016103af93929190610819565b604051602081830303815290604052805190602001205f1c6103d19190610855565b90508060036103e091906106bc565b5f8190555042600181905550505b565b5f819050919050565b610402816103f0565b82525050565b5f60208201905061041b5f8301846103f9565b92915050565b5f73ffffffffffffffffffffffffffffffffffffffff82169050919050565b5f819050919050565b5f61046361045e61045984610421565b610440565b610421565b9050919050565b5f61047482610449565b9050919050565b5f6104858261046a565b9050919050565b6104958161047b565b82525050565b5f6020820190506104ae5f83018461048c565b92915050565b5f5ffd5b6104c1816103f0565b81146104cb575f5ffd5b50565b5f813590506104dc816104b8565b92915050565b5f602082840312156104f7576104f66104b4565b5b5f610504848285016104ce565b91505092915050565b5f61051782610421565b9050919050565b6105278161050d565b8114610531575f5ffd5b50565b5f813590506105428161051e565b92915050565b5f6020828403121561055d5761055c6104b4565b5b5f61056a84828501610534565b91505092915050565b5f82825260208201905092915050565b7f5a65726f000000000000000000000000000000000000000000000000000000005f82015250565b5f6105b7600483610573565b91506105c282610583565b602082019050919050565b5f6020820190508181035f8301526105e4816105ab565b9050919050565b6105f48161050d565b82525050565b5f60608201905061060d5f8301866105eb565b61061a60208301856105eb565b61062760408301846103f9565b949350505050565b5f8115159050919050565b6106438161062f565b811461064d575f5ffd5b50565b5f8151905061065e8161063a565b92915050565b5f60208284031215610679576106786104b4565b5b5f61068684828501610650565b91505092915050565b7f4e487b71000000000000000000000000000000000000000000000000000000005f52601160045260245ffd5b5f6106c6826103f0565b91506106d1836103f0565b92508282019050808211156106e9576106e861068f565b5b92915050565b5f6106f9826103f0565b9150610704836103f0565b9250828202610712816103f0565b915082820484148315176107295761072861068f565b5b5092915050565b7f4e487b71000000000000000000000000000000000000000000000000000000005f52601260045260245ffd5b5f610767826103f0565b9150610772836103f0565b92508261078257610781610730565b5b828204905092915050565b5f6040820190506107a05f8301856105eb565b6107ad60208301846103f9565b9392505050565b5f819050919050565b6107ce6107c9826103f0565b6107b4565b82525050565b5f8160601b9050919050565b5f6107ea826107d4565b9050919050565b5f6107fb826107e0565b9050919050565b61081361080e8261050d565b6107f1565b82525050565b5f61082482866107bd565b60208201915061083482856107bd565b6020820191506108448284610802565b601482019150819050949350505050565b5f61085f826103f0565b915061086a836103f0565b92508261087a57610879610730565b5b82820690509291505056fea2646970667358221220fec4113509fa294ca2b21c3b416cc16178892fdb82e0219471daced064d37d9964736f6c634300081e0033","linkReferences":{}},"methodIdentifiers":{"currentYield()":"78a642f2","deposit(uint256)":"b6b55f25","lastUpdate()":"c0463711","totalDeposited()":"ff50abdc","vUSDT()":"a879ebeb","withdrawAll(address)":"fa09e630","yieldRate()":"6999ac93"},"id":24}